{
  "_format": "hh-sol-artifact-1",
  "contractName": "ChainEval",
  "sourceName": "contracts/ChainEval.sol",
  "abi": [
    {
      "inputs": [],
      "stateMutability": "nonpayable",
      "type": "constructor"
    },
    {
      "anonymous": false,
      "inputs": [
        {
          "indexed": true,
          "internalType": "uint256",
          "name": "courseId",
          "type": "uint256"
        },
        {
          "indexed": false,
          "internalType": "string",
          "name": "name",
          "type": "string"
        },
        {
          "indexed": false,
          "internalType": "address",
          "name": "teacher",
          "type": "address"
        }
      ],
      "name": "CourseAdded",
      "type": "event"
    },
    {
      "anonymous": false,
      "inputs": [
        {
          "indexed": true,
          "internalType": "uint256",
          "name": "courseId",
          "type": "uint256"
        },
        {
          "indexed": false,
          "internalType": "string",
          "name": "name",
          "type": "string"
        },
        {
          "indexed": false,
          "internalType": "address",
          "name": "teacher",
          "type": "address"
        }
      ],
      "name": "CourseUpdated",
      "type": "event"
    },
    {
      "anonymous": false,
      "inputs": [
        {
          "indexed": true,
          "internalType": "uint256",
          "name": "courseId",
          "type": "uint256"
        },
        {
          "indexed": false,
          "internalType": "address",
          "name": "student",
          "type": "address"
        },
        {
          "indexed": false,
          "internalType": "uint8",
          "name": "score",
          "type": "uint8"
        }
      ],
      "name": "EvaluationSubmitted",
      "type": "event"
    },
    {
      "anonymous": false,
      "inputs": [
        {
          "indexed": true,
          "internalType": "address",
          "name": "previousOwner",
          "type": "address"
        },
        {
          "indexed": true,
          "internalType": "address",
          "name": "newOwner",
          "type": "address"
        }
      ],
      "name": "OwnershipTransferred",
      "type": "event"
    },
    {
      "anonymous": false,
      "inputs": [
        {
          "indexed": true,
          "internalType": "address",
          "name": "userAddress",
          "type": "address"
        }
      ],
      "name": "UserPasswordChanged",
      "type": "event"
    },
    {
      "anonymous": false,
      "inputs": [
        {
          "indexed": true,
          "internalType": "address",
          "name": "userAddress",
          "type": "address"
        },
        {
          "indexed": false,
          "internalType": "string",
          "name": "email",
          "type": "string"
        }
      ],
      "name": "UserProfileUpdated",
      "type": "event"
    },
    {
      "anonymous": false,
      "inputs": [
        {
          "indexed": true,
          "internalType": "address",
          "name": "userAddress",
          "type": "address"
        },
        {
          "indexed": false,
          "internalType": "string",
          "name": "id",
          "type": "string"
        },
        {
          "indexed": false,
          "internalType": "enum ChainEval.Role",
          "name": "role",
          "type": "uint8"
        }
      ],
      "name": "UserRegistered",
      "type": "event"
    },
    {
      "inputs": [
        {
          "internalType": "string",
          "name": "_name",
          "type": "string"
        },
        {
          "internalType": "uint8",
          "name": "_credits",
          "type": "uint8"
        },
        {
          "internalType": "address",
          "name": "_teacher",
          "type": "address"
        }
      ],
      "name": "addCourse",
      "outputs": [],
      "stateMutability": "nonpayable",
      "type": "function"
    },
    {
      "inputs": [
        {
          "internalType": "bytes32",
          "name": "_oldPasswordHash",
          "type": "bytes32"
        },
        {
          "internalType": "bytes32",
          "name": "_newPasswordHash",
          "type": "bytes32"
        }
      ],
      "name": "changePassword",
      "outputs": [],
      "stateMutability": "nonpayable",
      "type": "function"
    },
    {
      "inputs": [
        {
          "internalType": "uint256",
          "name": "",
          "type": "uint256"
        },
        {
          "internalType": "uint256",
          "name": "",
          "type": "uint256"
        }
      ],
      "name": "courseEvaluations",
      "outputs": [
        {
          "internalType": "uint256",
          "name": "courseId",
          "type": "uint256"
        },
        {
          "internalType": "uint8",
          "name": "score",
          "type": "uint8"
        },
        {
          "internalType": "string",
          "name": "comment",
          "type": "string"
        },
        {
          "internalType": "uint256",
          "name": "timestamp",
          "type": "uint256"
        },
        {
          "internalType": "bool",
          "name": "isAnonymous",
          "type": "bool"
        },
        {
          "internalType": "address",
          "name": "student",
          "type": "address"
        }
      ],
      "stateMutability": "view",
      "type": "function"
    },
    {
      "inputs": [
        {
          "internalType": "uint256",
          "name": "",
          "type": "uint256"
        }
      ],
      "name": "courses",
      "outputs": [
        {
          "internalType": "uint256",
          "name": "id",
          "type": "uint256"
        },
        {
          "internalType": "string",
          "name": "name",
          "type": "string"
        },
        {
          "internalType": "uint8",
          "name": "credits",
          "type": "uint8"
        },
        {
          "internalType": "address",
          "name": "teacher",
          "type": "address"
        },
        {
          "internalType": "bool",
          "name": "isActive",
          "type": "bool"
        }
      ],
      "stateMutability": "view",
      "type": "function"
    },
    {
      "inputs": [],
      "name": "getAllCourses",
      "outputs": [
        {
          "components": [
            {
              "internalType": "uint256",
              "name": "id",
              "type": "uint256"
            },
            {
              "internalType": "string",
              "name": "name",
              "type": "string"
            },
            {
              "internalType": "uint8",
              "name": "credits",
              "type": "uint8"
            },
            {
              "internalType": "address",
              "name": "teacher",
              "type": "address"
            },
            {
              "internalType": "bool",
              "name": "isActive",
              "type": "bool"
            }
          ],
          "internalType": "struct ChainEval.Course[]",
          "name": "",
          "type": "tuple[]"
        }
      ],
      "stateMutability": "view",
      "type": "function"
    },
    {
      "inputs": [],
      "name": "getAllUsers",
      "outputs": [
        {
          "components": [
            {
              "internalType": "string",
              "name": "id",
              "type": "string"
            },
            {
              "internalType": "string",
              "name": "email",
              "type": "string"
            },
            {
              "internalType": "bytes32",
              "name": "passwordHash",
              "type": "bytes32"
            },
            {
              "internalType": "enum ChainEval.Role",
              "name": "role",
              "type": "uint8"
            },
            {
              "internalType": "bool",
              "name": "isRegistered",
              "type": "bool"
            }
          ],
          "internalType": "struct ChainEval.User[]",
          "name": "",
          "type": "tuple[]"
        }
      ],
      "stateMutability": "view",
      "type": "function"
    },
    {
      "inputs": [
        {
          "internalType": "uint256",
          "name": "_courseId",
          "type": "uint256"
        }
      ],
      "name": "getCourseDetail",
      "outputs": [
        {
          "components": [
            {
              "internalType": "uint256",
              "name": "id",
              "type": "uint256"
            },
            {
              "internalType": "string",
              "name": "name",
              "type": "string"
            },
            {
              "internalType": "uint8",
              "name": "credits",
              "type": "uint8"
            },
            {
              "internalType": "address",
              "name": "teacher",
              "type": "address"
            },
            {
              "internalType": "bool",
              "name": "isActive",
              "type": "bool"
            }
          ],
          "internalType": "struct ChainEval.Course",
          "name": "",
          "type": "tuple"
        }
      ],
      "stateMutability": "view",
      "type": "function"
    },
    {
      "inputs": [
        {
          "internalType": "uint256",
          "name": "_courseId",
          "type": "uint256"
        }
      ],
      "name": "getCourseEvaluations",
      "outputs": [
        {
          "components": [
            {
              "internalType": "uint256",
              "name": "courseId",
              "type": "uint256"
            },
            {
              "internalType": "uint8",
              "name": "score",
              "type": "uint8"
            },
            {
              "internalType": "string",
              "name": "comment",
              "type": "string"
            },
            {
              "internalType": "uint256",
              "name": "timestamp",
              "type": "uint256"
            },
            {
              "internalType": "bool",
              "name": "isAnonymous",
              "type": "bool"
            },
            {
              "internalType": "address",
              "name": "student",
              "type": "address"
            }
          ],
          "internalType": "struct ChainEval.Evaluation[]",
          "name": "",
          "type": "tuple[]"
        }
      ],
      "stateMutability": "view",
      "type": "function"
    },
    {
      "inputs": [
        {
          "internalType": "uint256",
          "name": "_courseId",
          "type": "uint256"
        }
      ],
      "name": "getCourseStudents",
      "outputs": [
        {
          "internalType": "address[]",
          "name": "",
          "type": "address[]"
        }
      ],
      "stateMutability": "view",
      "type": "function"
    },
    {
      "inputs": [],
      "name": "getCurrentUserInfo",
      "outputs": [
        {
          "components": [
            {
              "internalType": "string",
              "name": "id",
              "type": "string"
            },
            {
              "internalType": "string",
              "name": "email",
              "type": "string"
            },
            {
              "internalType": "bytes32",
              "name": "passwordHash",
              "type": "bytes32"
            },
            {
              "internalType": "enum ChainEval.Role",
              "name": "role",
              "type": "uint8"
            },
            {
              "internalType": "bool",
              "name": "isRegistered",
              "type": "bool"
            }
          ],
          "internalType": "struct ChainEval.User",
          "name": "",
          "type": "tuple"
        }
      ],
      "stateMutability": "view",
      "type": "function"
    },
    {
      "inputs": [],
      "name": "getStudentEvaluations",
      "outputs": [
        {
          "components": [
            {
              "internalType": "uint256",
              "name": "courseId",
              "type": "uint256"
            },
            {
              "internalType": "uint8",
              "name": "score",
              "type": "uint8"
            },
            {
              "internalType": "string",
              "name": "comment",
              "type": "string"
            },
            {
              "internalType": "uint256",
              "name": "timestamp",
              "type": "uint256"
            },
            {
              "internalType": "bool",
              "name": "isAnonymous",
              "type": "bool"
            },
            {
              "internalType": "address",
              "name": "student",
              "type": "address"
            }
          ],
          "internalType": "struct ChainEval.Evaluation[]",
          "name": "",
          "type": "tuple[]"
        }
      ],
      "stateMutability": "view",
      "type": "function"
    },
    {
      "inputs": [],
      "name": "getStudentTakenCourses",
      "outputs": [
        {
          "components": [
            {
              "internalType": "uint256",
              "name": "id",
              "type": "uint256"
            },
            {
              "internalType": "string",
              "name": "name",
              "type": "string"
            },
            {
              "internalType": "uint8",
              "name": "credits",
              "type": "uint8"
            },
            {
              "internalType": "address",
              "name": "teacher",
              "type": "address"
            },
            {
              "internalType": "bool",
              "name": "isActive",
              "type": "bool"
            }
          ],
          "internalType": "struct ChainEval.Course[]",
          "name": "",
          "type": "tuple[]"
        }
      ],
      "stateMutability": "view",
      "type": "function"
    },
    {
      "inputs": [],
      "name": "getTeacherCourses",
      "outputs": [
        {
          "components": [
            {
              "internalType": "uint256",
              "name": "id",
              "type": "uint256"
            },
            {
              "internalType": "string",
              "name": "name",
              "type": "string"
            },
            {
              "internalType": "uint8",
              "name": "credits",
              "type": "uint8"
            },
            {
              "internalType": "address",
              "name": "teacher",
              "type": "address"
            },
            {
              "internalType": "bool",
              "name": "isActive",
              "type": "bool"
            }
          ],
          "internalType": "struct ChainEval.Course[]",
          "name": "",
          "type": "tuple[]"
        }
      ],
      "stateMutability": "view",
      "type": "function"
    },
    {
      "inputs": [
        {
          "internalType": "string",
          "name": "_id",
          "type": "string"
        },
        {
          "internalType": "bytes32",
          "name": "_passwordHash",
          "type": "bytes32"
        }
      ],
      "name": "login",
      "outputs": [
        {
          "internalType": "bool",
          "name": "",
          "type": "bool"
        }
      ],
      "stateMutability": "view",
      "type": "function"
    },
    {
      "inputs": [
        {
          "internalType": "uint256",
          "name": "_courseId",
          "type": "uint256"
        },
        {
          "internalType": "address",
          "name": "_student",
          "type": "address"
        }
      ],
      "name": "markStudentCourse",
      "outputs": [],
      "stateMutability": "nonpayable",
      "type": "function"
    },
    {
      "inputs": [],
      "name": "owner",
      "outputs": [
        {
          "internalType": "address",
          "name": "",
          "type": "address"
        }
      ],
      "stateMutability": "view",
      "type": "function"
    },
    {
      "inputs": [
        {
          "internalType": "string",
          "name": "_id",
          "type": "string"
        },
        {
          "internalType": "string",
          "name": "_email",
          "type": "string"
        },
        {
          "internalType": "bytes32",
          "name": "_passwordHash",
          "type": "bytes32"
        },
        {
          "internalType": "enum ChainEval.Role",
          "name": "_role",
          "type": "uint8"
        }
      ],
      "name": "register",
      "outputs": [],
      "stateMutability": "nonpayable",
      "type": "function"
    },
    {
      "inputs": [],
      "name": "renounceOwnership",
      "outputs": [],
      "stateMutability": "nonpayable",
      "type": "function"
    },
    {
      "inputs": [
        {
          "internalType": "uint256",
          "name": "",
          "type": "uint256"
        },
        {
          "internalType": "address",
          "name": "",
          "type": "address"
        }
      ],
      "name": "studentCourses",
      "outputs": [
        {
          "internalType": "bool",
          "name": "",
          "type": "bool"
        }
      ],
      "stateMutability": "view",
      "type": "function"
    },
    {
      "inputs": [
        {
          "internalType": "uint256",
          "name": "_courseId",
          "type": "uint256"
        },
        {
          "internalType": "uint8",
          "name": "_score",
          "type": "uint8"
        },
        {
          "internalType": "string",
          "name": "_comment",
          "type": "string"
        },
        {
          "internalType": "bool",
          "name": "_isAnonymous",
          "type": "bool"
        }
      ],
      "name": "submitEvaluation",
      "outputs": [],
      "stateMutability": "nonpayable",
      "type": "function"
    },
    {
      "inputs": [
        {
          "internalType": "address",
          "name": "newOwner",
          "type": "address"
        }
      ],
      "name": "transferOwnership",
      "outputs": [],
      "stateMutability": "nonpayable",
      "type": "function"
    },
    {
      "inputs": [
        {
          "internalType": "uint256",
          "name": "_courseId",
          "type": "uint256"
        },
        {
          "internalType": "string",
          "name": "_name",
          "type": "string"
        },
        {
          "internalType": "uint8",
          "name": "_credits",
          "type": "uint8"
        },
        {
          "internalType": "address",
          "name": "_teacher",
          "type": "address"
        }
      ],
      "name": "updateCourse",
      "outputs": [],
      "stateMutability": "nonpayable",
      "type": "function"
    },
    {
      "inputs": [
        {
          "internalType": "string",
          "name": "_newEmail",
          "type": "string"
        }
      ],
      "name": "updateUserProfile",
      "outputs": [],
      "stateMutability": "nonpayable",
      "type": "function"
    },
    {
      "inputs": [
        {
          "internalType": "string",
          "name": "",
          "type": "string"
        }
      ],
      "name": "usedUserIds",
      "outputs": [
        {
          "internalType": "bool",
          "name": "",
          "type": "bool"
        }
      ],
      "stateMutability": "view",
      "type": "function"
    },
    {
      "inputs": [
        {
          "internalType": "uint256",
          "name": "",
          "type": "uint256"
        }
      ],
      "name": "userAddresses",
      "outputs": [
        {
          "internalType": "address",
          "name": "",
          "type": "address"
        }
      ],
      "stateMutability": "view",
      "type": "function"
    },
    {
      "inputs": [
        {
          "internalType": "address",
          "name": "",
          "type": "address"
        }
      ],
      "name": "users",
      "outputs": [
        {
          "internalType": "string",
          "name": "id",
          "type": "string"
        },
        {
          "internalType": "string",
          "name": "email",
          "type": "string"
        },
        {
          "internalType": "bytes32",
          "name": "passwordHash",
          "type": "bytes32"
        },
        {
          "internalType": "enum ChainEval.Role",
          "name": "role",
          "type": "uint8"
        },
        {
          "internalType": "bool",
          "name": "isRegistered",
          "type": "bool"
        }
      ],
      "stateMutability": "view",
      "type": "function"
    }
  ],
  "bytecode": "0x60806040523480156200001157600080fd5b506200003262000026620002a560201b60201c565b620002ad60201b60201c565b600180819055506040518060a001604052806040518060400160405280600581526020017f41444d494e00000000000000000000000000000000000000000000000000000081525081526020016040518060400160405280601181526020017f313439343133333130344071712e636f6d00000000000000000000000000000081525081526020016000801b8152602001600280811115620000d957620000d862000371565b5b815260200160011515815250600260003373ffffffffffffffffffffffffffffffffffffffff1673ffffffffffffffffffffffffffffffffffffffff16815260200190815260200160002060008201518160000190816200013b91906200061a565b5060208201518160010190816200015391906200061a565b506040820151816002015560608201518160030160006101000a81548160ff021916908360028111156200018c576200018b62000371565b5b021790555060808201518160030160016101000a81548160ff0219169083151502179055509050506003339080600181540180825580915050600190039060005260206000200160009091909190916101000a81548173ffffffffffffffffffffffffffffffffffffffff021916908373ffffffffffffffffffffffffffffffffffffffff1602179055506001600760405162000229906200075c565b908152602001604051809103902060006101000a81548160ff0219169083151502179055503373ffffffffffffffffffffffffffffffffffffffff167fc2e5d5da58bd71d1a2d14cdef02a4256d971b728088f8190d067ccfbae3bd73e6002604051620002979190620007fc565b60405180910390a26200082e565b600033905090565b60008060009054906101000a900473ffffffffffffffffffffffffffffffffffffffff169050816000806101000a81548173ffffffffffffffffffffffffffffffffffffffff021916908373ffffffffffffffffffffffffffffffffffffffff1602179055508173ffffffffffffffffffffffffffffffffffffffff168173ffffffffffffffffffffffffffffffffffffffff167f8be0079c531659141344cd1fd0a4f28419497f9722a3daafe3b4186f6b6457e060405160405180910390a35050565b7f4e487b7100000000000000000000000000000000000000000000000000000000600052602160045260246000fd5b600081519050919050565b7f4e487b7100000000000000000000000000000000000000000000000000000000600052604160045260246000fd5b7f4e487b7100000000000000000000000000000000000000000000000000000000600052602260045260246000fd5b600060028204905060018216806200042257607f821691505b602082108103620004385762000437620003da565b5b50919050565b60008190508160005260206000209050919050565b60006020601f8301049050919050565b600082821b905092915050565b600060088302620004a27fffffffffffffffffffffffffffffffffffffffffffffffffffffffffffffffff8262000463565b620004ae868362000463565b95508019841693508086168417925050509392505050565b6000819050919050565b6000819050919050565b6000620004fb620004f5620004ef84620004c6565b620004d0565b620004c6565b9050919050565b6000819050919050565b6200051783620004da565b6200052f620005268262000502565b84845462000470565b825550505050565b600090565b6200054662000537565b620005538184846200050c565b505050565b5b818110156200057b576200056f6000826200053c565b60018101905062000559565b5050565b601f821115620005ca5762000594816200043e565b6200059f8462000453565b81016020851015620005af578190505b620005c7620005be8562000453565b83018262000558565b50505b505050565b600082821c905092915050565b6000620005ef60001984600802620005cf565b1980831691505092915050565b60006200060a8383620005dc565b9150826002028217905092915050565b6200062582620003a0565b67ffffffffffffffff811115620006415762000640620003ab565b5b6200064d825462000409565b6200065a8282856200057f565b600060209050601f8311600181146200069257600084156200067d578287015190505b620006898582620005fc565b865550620006f9565b601f198416620006a2866200043e565b60005b82811015620006cc57848901518255600182019150602085019450602081019050620006a5565b86831015620006ec5784890151620006e8601f891682620005dc565b8355505b6001600288020188555050505b505050505050565b600081905092915050565b7f41444d494e000000000000000000000000000000000000000000000000000000600082015250565b60006200074460058362000701565b915062000751826200070c565b600582019050919050565b6000620007698262000735565b9150819050919050565b600082825260208201905092915050565b60006200079360058362000773565b9150620007a0826200070c565b602082019050919050565b60038110620007bf57620007be62000371565b5b50565b6000819050620007d282620007ab565b919050565b6000620007e482620007c2565b9050919050565b620007f681620007d7565b82525050565b60006040820190508181036000830152620008178162000784565b9050620008286020830184620007eb565b92915050565b6157ea806200083e6000396000f3fe608060405234801561001057600080fd5b506004361061018e5760003560e01c8063760befbc116100de578063ae86ffdb11610097578063c2cae96011610071578063c2cae960146104b6578063c3ca2171146104e6578063e2842d7914610502578063f2fde38b146105205761018e565b8063ae86ffdb1461044c578063b79367c414610468578063bf76d7c2146104985761018e565b8063760befbc1461036e5780638da5cb5b1461038c5780638f94fe1e146103aa57806396f979d2146103c8578063a2908683146103fc578063a87430ba146104185761018e565b80632025ca541161014b578063582b6e4111610125578063582b6e41146102fc5780635fa0e0f11461031857806360dd60e314610334578063715018a6146103645761018e565b80632025ca5414610294578063292785fc146102b0578063502c9bd5146102cc5761018e565b8063016c14da1461019357806302e30046146101c357806304e48bd1146101e157806304f75406146101ff578063181c5c821461022f57806319a166b914610264575b600080fd5b6101ad60048036038101906101a89190613b97565b61053c565b6040516101ba9190613e26565b60405180910390f35b6101cb610729565b6040516101d89190613f80565b60405180910390f35b6101e9610ae5565b6040516101f69190613f80565b60405180910390f35b6102196004803603810190610214919061410d565b610c6e565b6040516102269190614178565b60405180910390f35b61024960048036038101906102449190614193565b610e7b565b60405161025b9695949392919061424a565b60405180910390f35b61027e600480360381019061027991906142de565b610f96565b60405161028b9190614178565b60405180910390f35b6102ae60048036038101906102a991906142de565b610fc5565b005b6102ca60048036038101906102c5919061431e565b6111e4565b005b6102e660048036038101906102e19190613b97565b61134d565b6040516102f3919061435e565b60405180910390f35b6103166004803603810190610311919061439e565b61138c565b005b610332600480360381019061032d9190614495565b6116e2565b005b61034e60048036038101906103499190613b97565b611a6e565b60405161035b91906145c7565b60405180910390f35b61036c611d45565b005b610376611d59565b6040516103839190613e26565b60405180910390f35b6103946122ae565b6040516103a1919061435e565b60405180910390f35b6103b26122d7565b6040516103bf91906146ec565b60405180910390f35b6103e260048036038101906103dd9190613b97565b612541565b6040516103f395949392919061470e565b60405180910390f35b61041660048036038101906104119190614768565b612649565b005b610432600480360381019061042d91906147d7565b612985565b604051610443959493929190614822565b60405180910390f35b61046660048036038101906104619190614883565b612ae5565b005b610482600480360381019061047d9190613b97565b612c1b565b60405161048f9190614942565b60405180910390f35b6104a0612dc8565b6040516104ad9190613f80565b60405180910390f35b6104d060048036038101906104cb9190614883565b6131ae565b6040516104dd9190614178565b60405180910390f35b61050060048036038101906104fb9190614964565b6131e4565b005b61050a6134de565b6040516105179190614b26565b60405180910390f35b61053a600480360381019061053591906147d7565b613847565b005b60606004805490508210610585576040517f08c379a000000000000000000000000000000000000000000000000000000000815260040161057c90614b94565b60405180910390fd5b60066000838152602001908152602001600020805480602002602001604051908101604052809291908181526020016000905b8282101561071e57838290600052602060002090600502016040518060c0016040529081600082015481526020016001820160009054906101000a900460ff1660ff1660ff16815260200160028201805461061290614be3565b80601f016020809104026020016040519081016040528092919081815260200182805461063e90614be3565b801561068b5780601f106106605761010080835404028352916020019161068b565b820191906000526020600020905b81548152906001019060200180831161066e57829003601f168201915b50505050508152602001600382015481526020016004820160009054906101000a900460ff161515151581526020016004820160019054906101000a900473ffffffffffffffffffffffffffffffffffffffff1673ffffffffffffffffffffffffffffffffffffffff1673ffffffffffffffffffffffffffffffffffffffff1681525050815260200190600101906105b8565b505050509050919050565b60606000600281111561073f5761073e6145f8565b5b600260003373ffffffffffffffffffffffffffffffffffffffff1673ffffffffffffffffffffffffffffffffffffffff16815260200190815260200160002060030160009054906101000a900460ff1660028111156107a1576107a06145f8565b5b146107e1576040517f08c379a00000000000000000000000000000000000000000000000000000000081526004016107d890614c86565b60405180910390fd5b6000805b600480549050811015610877576005600082815260200190815260200160002060003373ffffffffffffffffffffffffffffffffffffffff1673ffffffffffffffffffffffffffffffffffffffff16815260200190815260200160002060009054906101000a900460ff161561086457818061086090614cd5565b9250505b808061086f90614cd5565b9150506107e5565b5060008167ffffffffffffffff81111561089457610893613fac565b5b6040519080825280602002602001820160405280156108cd57816020015b6108ba613a6c565b8152602001906001900390816108b25790505b5090506000805b600480549050811015610adb576005600082815260200190815260200160002060003373ffffffffffffffffffffffffffffffffffffffff1673ffffffffffffffffffffffffffffffffffffffff16815260200190815260200160002060009054906101000a900460ff1615610ac8576004818154811061095857610957614d1d565b5b90600052602060002090600302016040518060a00160405290816000820154815260200160018201805461098b90614be3565b80601f01602080910402602001604051908101604052809291908181526020018280546109b790614be3565b8015610a045780601f106109d957610100808354040283529160200191610a04565b820191906000526020600020905b8154815290600101906020018083116109e757829003601f168201915b505050505081526020016002820160009054906101000a900460ff1660ff1660ff1681526020016002820160019054906101000a900473ffffffffffffffffffffffffffffffffffffffff1673ffffffffffffffffffffffffffffffffffffffff1673ffffffffffffffffffffffffffffffffffffffff1681526020016002820160159054906101000a900460ff161515151581525050838381518110610aae57610aad614d1d565b5b60200260200101819052508180610ac490614cd5565b9250505b8080610ad390614cd5565b9150506108d4565b5081935050505090565b60606004805480602002602001604051908101604052809291908181526020016000905b82821015610c6557838290600052602060002090600302016040518060a001604052908160008201548152602001600182018054610b4690614be3565b80601f0160208091040260200160405190810160405280929190818152602001828054610b7290614be3565b8015610bbf5780601f10610b9457610100808354040283529160200191610bbf565b820191906000526020600020905b815481529060010190602001808311610ba257829003601f168201915b505050505081526020016002820160009054906101000a900460ff1660ff1660ff1681526020016002820160019054906101000a900473ffffffffffffffffffffffffffffffffffffffff1673ffffffffffffffffffffffffffffffffffffffff1673ffffffffffffffffffffffffffffffffffffffff1681526020016002820160159054906101000a900460ff16151515158152505081526020019060010190610b09565b50505050905090565b600080600260003373ffffffffffffffffffffffffffffffffffffffff1673ffffffffffffffffffffffffffffffffffffffff1681526020019081526020016000206040518060a0016040529081600082018054610ccb90614be3565b80601f0160208091040260200160405190810160405280929190818152602001828054610cf790614be3565b8015610d445780601f10610d1957610100808354040283529160200191610d44565b820191906000526020600020905b815481529060010190602001808311610d2757829003601f168201915b50505050508152602001600182018054610d5d90614be3565b80601f0160208091040260200160405190810160405280929190818152602001828054610d8990614be3565b8015610dd65780601f10610dab57610100808354040283529160200191610dd6565b820191906000526020600020905b815481529060010190602001808311610db957829003601f168201915b50505050508152602001600282015481526020016003820160009054906101000a900460ff166002811115610e0e57610e0d6145f8565b5b6002811115610e2057610e1f6145f8565b5b81526020016003820160019054906101000a900460ff161515151581525050905080608001518015610e6357508380519060200120816000015180519060200120145b8015610e725750828160400151145b91505092915050565b60066020528160005260406000208181548110610e9757600080fd5b9060005260206000209060050201600091509150508060000154908060010160009054906101000a900460ff1690806002018054610ed490614be3565b80601f0160208091040260200160405190810160405280929190818152602001828054610f0090614be3565b8015610f4d5780601f10610f2257610100808354040283529160200191610f4d565b820191906000526020600020905b815481529060010190602001808311610f3057829003601f168201915b5050505050908060030154908060040160009054906101000a900460ff16908060040160019054906101000a900473ffffffffffffffffffffffffffffffffffffffff16905086565b60056020528160005260406000206020528060005260406000206000915091509054906101000a900460ff1681565b600280811115610fd857610fd76145f8565b5b600260003373ffffffffffffffffffffffffffffffffffffffff1673ffffffffffffffffffffffffffffffffffffffff16815260200190815260200160002060030160009054906101000a900460ff16600281111561103a576110396145f8565b5b1461107a576040517f08c379a000000000000000000000000000000000000000000000000000000000815260040161107190614dbe565b60405180910390fd5b60048054905082106110c1576040517f08c379a00000000000000000000000000000000000000000000000000000000081526004016110b890614b94565b60405180910390fd5b600060028111156110d5576110d46145f8565b5b600260008373ffffffffffffffffffffffffffffffffffffffff1673ffffffffffffffffffffffffffffffffffffffff16815260200190815260200160002060030160009054906101000a900460ff166002811115611137576111366145f8565b5b14611177576040517f08c379a000000000000000000000000000000000000000000000000000000000815260040161116e90614e2a565b60405180910390fd5b60016005600084815260200190815260200160002060008373ffffffffffffffffffffffffffffffffffffffff1673ffffffffffffffffffffffffffffffffffffffff16815260200190815260200160002060006101000a81548160ff0219169083151502179055505050565b600260003373ffffffffffffffffffffffffffffffffffffffff1673ffffffffffffffffffffffffffffffffffffffff16815260200190815260200160002060030160019054906101000a900460ff16611273576040517f08c379a000000000000000000000000000000000000000000000000000000000815260040161126a90614e96565b60405180910390fd5b6000600260003373ffffffffffffffffffffffffffffffffffffffff1673ffffffffffffffffffffffffffffffffffffffff1681526020019081526020016000209050828160020154146112fc576040517f08c379a00000000000000000000000000000000000000000000000000000000081526004016112f390614f02565b60405180910390fd5b8181600201819055503373ffffffffffffffffffffffffffffffffffffffff167fee52ac848d852cace0a3783312f1948e06da37de3b120183d8131ca8dd96726d60405160405180910390a2505050565b6003818154811061135d57600080fd5b906000526020600020016000915054906101000a900473ffffffffffffffffffffffffffffffffffffffff1681565b600260003373ffffffffffffffffffffffffffffffffffffffff1673ffffffffffffffffffffffffffffffffffffffff16815260200190815260200160002060030160019054906101000a900460ff161561141c576040517f08c379a000000000000000000000000000000000000000000000000000000000815260040161141390614f6e565b60405180910390fd5b60028081111561142f5761142e6145f8565b5b816002811115611442576114416145f8565b5b03611482576040517f08c379a000000000000000000000000000000000000000000000000000000000815260040161147990614fda565b60405180910390fd5b6007846040516114929190615036565b908152602001604051809103902060009054906101000a900460ff16156114ee576040517f08c379a00000000000000000000000000000000000000000000000000000000081526004016114e590615099565b60405180910390fd5b6040518060a0016040528085815260200184815260200183815260200182600281111561151e5761151d6145f8565b5b815260200160011515815250600260003373ffffffffffffffffffffffffffffffffffffffff1673ffffffffffffffffffffffffffffffffffffffff168152602001908152602001600020600082015181600001908161157e9190615265565b5060208201518160010190816115949190615265565b506040820151816002015560608201518160030160006101000a81548160ff021916908360028111156115ca576115c96145f8565b5b021790555060808201518160030160016101000a81548160ff0219169083151502179055509050506003339080600181540180825580915050600190039060005260206000200160009091909190916101000a81548173ffffffffffffffffffffffffffffffffffffffff021916908373ffffffffffffffffffffffffffffffffffffffff16021790555060016007856040516116679190615036565b908152602001604051809103902060006101000a81548160ff0219169083151502179055503373ffffffffffffffffffffffffffffffffffffffff167fc2e5d5da58bd71d1a2d14cdef02a4256d971b728088f8190d067ccfbae3bd73e85836040516116d4929190615337565b60405180910390a250505050565b600060028111156116f6576116f56145f8565b5b600260003373ffffffffffffffffffffffffffffffffffffffff1673ffffffffffffffffffffffffffffffffffffffff16815260200190815260200160002060030160009054906101000a900460ff166002811115611758576117576145f8565b5b14611798576040517f08c379a000000000000000000000000000000000000000000000000000000000815260040161178f90614c86565b60405180910390fd5b6117a06138ca565b60048054905084106117e7576040517f08c379a00000000000000000000000000000000000000000000000000000000081526004016117de90614b94565b60405180910390fd5b6005600085815260200190815260200160002060003373ffffffffffffffffffffffffffffffffffffffff1673ffffffffffffffffffffffffffffffffffffffff16815260200190815260200160002060009054906101000a900460ff16611884576040517f08c379a000000000000000000000000000000000000000000000000000000000815260040161187b906153d9565b60405180910390fd5b60018360ff161015801561189c575060058360ff1611155b6118db576040517f08c379a00000000000000000000000000000000000000000000000000000000081526004016118d290615445565b60405180910390fd5b60006040518060c001604052808681526020018560ff1681526020018481526020014281526020018315158152602001836119165733611919565b60005b73ffffffffffffffffffffffffffffffffffffffff168152509050600660008681526020019081526020016000208190806001815401808255809150506001900390600052602060002090600502016000909190919091506000820151816000015560208201518160010160006101000a81548160ff021916908360ff16021790555060408201518160020190816119b19190615265565b506060820151816003015560808201518160040160006101000a81548160ff02191690831515021790555060a08201518160040160016101000a81548173ffffffffffffffffffffffffffffffffffffffff021916908373ffffffffffffffffffffffffffffffffffffffff1602179055505050847fa9c81bb8e47a6d44db9cf5a51a1805f6496590f3180a77498f1c78bbf19ff3b63386604051611a57929190615465565b60405180910390a250611a68613919565b50505050565b60606004805490508210611ab7576040517f08c379a0000000000000000000000000000000000000000000000000000000008152600401611aae90614b94565b60405180910390fd5b6000805b600380549050811015611b8b5760056000858152602001908152602001600020600060038381548110611af157611af0614d1d565b5b9060005260206000200160009054906101000a900473ffffffffffffffffffffffffffffffffffffffff1673ffffffffffffffffffffffffffffffffffffffff1673ffffffffffffffffffffffffffffffffffffffff16815260200190815260200160002060009054906101000a900460ff1615611b78578180611b7490614cd5565b9250505b8080611b8390614cd5565b915050611abb565b5060008167ffffffffffffffff811115611ba857611ba7613fac565b5b604051908082528060200260200182016040528015611bd65781602001602082028036833780820191505090505b5090506000805b600380549050811015611d395760056000878152602001908152602001600020600060038381548110611c1357611c12614d1d565b5b9060005260206000200160009054906101000a900473ffffffffffffffffffffffffffffffffffffffff1673ffffffffffffffffffffffffffffffffffffffff1673ffffffffffffffffffffffffffffffffffffffff16815260200190815260200160002060009054906101000a900460ff1615611d265760038181548110611c9f57611c9e614d1d565b5b9060005260206000200160009054906101000a900473ffffffffffffffffffffffffffffffffffffffff16838381518110611cdd57611cdc614d1d565b5b602002602001019073ffffffffffffffffffffffffffffffffffffffff16908173ffffffffffffffffffffffffffffffffffffffff16815250508180611d2290614cd5565b9250505b8080611d3190614cd5565b915050611bdd565b50819350505050919050565b611d4d613922565b611d5760006139a0565b565b606060006002811115611d6f57611d6e6145f8565b5b600260003373ffffffffffffffffffffffffffffffffffffffff1673ffffffffffffffffffffffffffffffffffffffff16815260200190815260200160002060030160009054906101000a900460ff166002811115611dd157611dd06145f8565b5b14611e11576040517f08c379a0000000000000000000000000000000000000000000000000000000008152600401611e0890614e2a565b60405180910390fd5b6000805b600480549050811015611f66576005600082815260200190815260200160002060003373ffffffffffffffffffffffffffffffffffffffff1673ffffffffffffffffffffffffffffffffffffffff16815260200190815260200160002060009054906101000a900460ff1615611f535760005b6006600083815260200190815260200160002080549050811015611f51573373ffffffffffffffffffffffffffffffffffffffff16600660008481526020019081526020016000208281548110611ee257611ee1614d1d565b5b906000526020600020906005020160040160019054906101000a900473ffffffffffffffffffffffffffffffffffffffff1673ffffffffffffffffffffffffffffffffffffffff1603611f3e578280611f3a90614cd5565b9350505b8080611f4990614cd5565b915050611e88565b505b8080611f5e90614cd5565b915050611e15565b5060008167ffffffffffffffff811115611f8357611f82613fac565b5b604051908082528060200260200182016040528015611fbc57816020015b611fa9613ab6565b815260200190600190039081611fa15790505b5090506000805b6004805490508110156122a4576005600082815260200190815260200160002060003373ffffffffffffffffffffffffffffffffffffffff1673ffffffffffffffffffffffffffffffffffffffff16815260200190815260200160002060009054906101000a900460ff16156122915760005b600660008381526020019081526020016000208054905081101561228f573373ffffffffffffffffffffffffffffffffffffffff166006600084815260200190815260200160002082815481106120905761208f614d1d565b5b906000526020600020906005020160040160019054906101000a900473ffffffffffffffffffffffffffffffffffffffff1673ffffffffffffffffffffffffffffffffffffffff160361227c5760066000838152602001908152602001600020818154811061210257612101614d1d565b5b90600052602060002090600502016040518060c0016040529081600082015481526020016001820160009054906101000a900460ff1660ff1660ff16815260200160028201805461215290614be3565b80601f016020809104026020016040519081016040528092919081815260200182805461217e90614be3565b80156121cb5780601f106121a0576101008083540402835291602001916121cb565b820191906000526020600020905b8154815290600101906020018083116121ae57829003601f168201915b50505050508152602001600382015481526020016004820160009054906101000a900460ff161515151581526020016004820160019054906101000a900473ffffffffffffffffffffffffffffffffffffffff1673ffffffffffffffffffffffffffffffffffffffff1673ffffffffffffffffffffffffffffffffffffffff168152505084848151811061226257612261614d1d565b5b6020026020010181905250828061227890614cd5565b9350505b808061228790614cd5565b915050612036565b505b808061229c90614cd5565b915050611fc3565b5081935050505090565b60008060009054906101000a900473ffffffffffffffffffffffffffffffffffffffff16905090565b6122df613b07565b600260003373ffffffffffffffffffffffffffffffffffffffff1673ffffffffffffffffffffffffffffffffffffffff16815260200190815260200160002060030160019054906101000a900460ff1661236e576040517f08c379a000000000000000000000000000000000000000000000000000000000815260040161236590614e96565b60405180910390fd5b600260003373ffffffffffffffffffffffffffffffffffffffff1673ffffffffffffffffffffffffffffffffffffffff1681526020019081526020016000206040518060a00160405290816000820180546123c890614be3565b80601f01602080910402602001604051908101604052809291908181526020018280546123f490614be3565b80156124415780601f1061241657610100808354040283529160200191612441565b820191906000526020600020905b81548152906001019060200180831161242457829003601f168201915b5050505050815260200160018201805461245a90614be3565b80601f016020809104026020016040519081016040528092919081815260200182805461248690614be3565b80156124d35780601f106124a8576101008083540402835291602001916124d3565b820191906000526020600020905b8154815290600101906020018083116124b657829003601f168201915b50505050508152602001600282015481526020016003820160009054906101000a900460ff16600281111561250b5761250a6145f8565b5b600281111561251d5761251c6145f8565b5b81526020016003820160019054906101000a900460ff161515151581525050905090565b6004818154811061255157600080fd5b906000526020600020906003020160009150905080600001549080600101805461257a90614be3565b80601f01602080910402602001604051908101604052809291908181526020018280546125a690614be3565b80156125f35780601f106125c8576101008083540402835291602001916125f3565b820191906000526020600020905b8154815290600101906020018083116125d657829003601f168201915b5050505050908060020160009054906101000a900460ff16908060020160019054906101000a900473ffffffffffffffffffffffffffffffffffffffff16908060020160159054906101000a900460ff16905085565b60028081111561265c5761265b6145f8565b5b600260003373ffffffffffffffffffffffffffffffffffffffff1673ffffffffffffffffffffffffffffffffffffffff16815260200190815260200160002060030160009054906101000a900460ff1660028111156126be576126bd6145f8565b5b146126fe576040517f08c379a00000000000000000000000000000000000000000000000000000000081526004016126f590614dbe565b60405180910390fd5b600073ffffffffffffffffffffffffffffffffffffffff168173ffffffffffffffffffffffffffffffffffffffff160361276d576040517f08c379a0000000000000000000000000000000000000000000000000000000008152600401612764906154da565b60405180910390fd5b60016002811115612781576127806145f8565b5b600260008373ffffffffffffffffffffffffffffffffffffffff1673ffffffffffffffffffffffffffffffffffffffff16815260200190815260200160002060030160009054906101000a900460ff1660028111156127e3576127e26145f8565b5b14612823576040517f08c379a000000000000000000000000000000000000000000000000000000000815260040161281a90615546565b60405180910390fd5b6000600480549050905060046040518060a001604052808381526020018681526020018560ff1681526020018473ffffffffffffffffffffffffffffffffffffffff1681526020016001151581525090806001815401808255809150506001900390600052602060002090600302016000909190919091506000820151816000015560208201518160010190816128ba9190615265565b5060408201518160020160006101000a81548160ff021916908360ff16021790555060608201518160020160016101000a81548173ffffffffffffffffffffffffffffffffffffffff021916908373ffffffffffffffffffffffffffffffffffffffff16021790555060808201518160020160156101000a81548160ff0219169083151502179055505050807f643641c76a40022c4b01cf88a92e7ca45eadfbe987252a93d9ee71b286fd3a838584604051612977929190615566565b60405180910390a250505050565b60026020528060005260406000206000915090508060000180546129a890614be3565b80601f01602080910402602001604051908101604052809291908181526020018280546129d490614be3565b8015612a215780601f106129f657610100808354040283529160200191612a21565b820191906000526020600020905b815481529060010190602001808311612a0457829003601f168201915b505050505090806001018054612a3690614be3565b80601f0160208091040260200160405190810160405280929190818152602001828054612a6290614be3565b8015612aaf5780601f10612a8457610100808354040283529160200191612aaf565b820191906000526020600020905b815481529060010190602001808311612a9257829003601f168201915b5050505050908060020154908060030160009054906101000a900460ff16908060030160019054906101000a900460ff16905085565b600260003373ffffffffffffffffffffffffffffffffffffffff1673ffffffffffffffffffffffffffffffffffffffff16815260200190815260200160002060030160019054906101000a900460ff16612b74576040517f08c379a0000000000000000000000000000000000000000000000000000000008152600401612b6b90614e96565b60405180910390fd5b6000600260003373ffffffffffffffffffffffffffffffffffffffff1673ffffffffffffffffffffffffffffffffffffffff168152602001908152602001600020905081816001019081612bc89190615265565b503373ffffffffffffffffffffffffffffffffffffffff167f9ab5b01c08788936fb2b48da858665afe9fa06d32e17dc49e0510c24ba05c98383604051612c0f9190615596565b60405180910390a25050565b612c23613a6c565b6004805490508210612c6a576040517f08c379a0000000000000000000000000000000000000000000000000000000008152600401612c6190614b94565b60405180910390fd5b60048281548110612c7e57612c7d614d1d565b5b90600052602060002090600302016040518060a001604052908160008201548152602001600182018054612cb190614be3565b80601f0160208091040260200160405190810160405280929190818152602001828054612cdd90614be3565b8015612d2a5780601f10612cff57610100808354040283529160200191612d2a565b820191906000526020600020905b815481529060010190602001808311612d0d57829003601f168201915b505050505081526020016002820160009054906101000a900460ff1660ff1660ff1681526020016002820160019054906101000a900473ffffffffffffffffffffffffffffffffffffffff1673ffffffffffffffffffffffffffffffffffffffff1673ffffffffffffffffffffffffffffffffffffffff1681526020016002820160159054906101000a900460ff1615151515815250509050919050565b606060016002811115612dde57612ddd6145f8565b5b600260003373ffffffffffffffffffffffffffffffffffffffff1673ffffffffffffffffffffffffffffffffffffffff16815260200190815260200160002060030160009054906101000a900460ff166002811115612e4057612e3f6145f8565b5b14612e80576040517f08c379a0000000000000000000000000000000000000000000000000000000008152600401612e779061562a565b60405180910390fd5b6000805b600480549050811015612f2b573373ffffffffffffffffffffffffffffffffffffffff1660048281548110612ebc57612ebb614d1d565b5b906000526020600020906003020160020160019054906101000a900473ffffffffffffffffffffffffffffffffffffffff1673ffffffffffffffffffffffffffffffffffffffff1603612f18578180612f1490614cd5565b9250505b8080612f2390614cd5565b915050612e84565b5060008167ffffffffffffffff811115612f4857612f47613fac565b5b604051908082528060200260200182016040528015612f8157816020015b612f6e613a6c565b815260200190600190039081612f665790505b5090506000805b6004805490508110156131a4573373ffffffffffffffffffffffffffffffffffffffff1660048281548110612fc057612fbf614d1d565b5b906000526020600020906003020160020160019054906101000a900473ffffffffffffffffffffffffffffffffffffffff1673ffffffffffffffffffffffffffffffffffffffff1603613191576004818154811061302157613020614d1d565b5b90600052602060002090600302016040518060a00160405290816000820154815260200160018201805461305490614be3565b80601f016020809104026020016040519081016040528092919081815260200182805461308090614be3565b80156130cd5780601f106130a2576101008083540402835291602001916130cd565b820191906000526020600020905b8154815290600101906020018083116130b057829003601f168201915b505050505081526020016002820160009054906101000a900460ff1660ff1660ff1681526020016002820160019054906101000a900473ffffffffffffffffffffffffffffffffffffffff1673ffffffffffffffffffffffffffffffffffffffff1673ffffffffffffffffffffffffffffffffffffffff1681526020016002820160159054906101000a900460ff16151515158152505083838151811061317757613176614d1d565b5b6020026020010181905250818061318d90614cd5565b9250505b808061319c90614cd5565b915050612f88565b5081935050505090565b6007818051602081018201805184825260208301602085012081835280955050505050506000915054906101000a900460ff1681565b6002808111156131f7576131f66145f8565b5b600260003373ffffffffffffffffffffffffffffffffffffffff1673ffffffffffffffffffffffffffffffffffffffff16815260200190815260200160002060030160009054906101000a900460ff166002811115613259576132586145f8565b5b14613299576040517f08c379a000000000000000000000000000000000000000000000000000000000815260040161329090614dbe565b60405180910390fd5b60048054905084106132e0576040517f08c379a00000000000000000000000000000000000000000000000000000000081526004016132d790614b94565b60405180910390fd5b600073ffffffffffffffffffffffffffffffffffffffff168173ffffffffffffffffffffffffffffffffffffffff160361334f576040517f08c379a0000000000000000000000000000000000000000000000000000000008152600401613346906154da565b60405180910390fd5b60016002811115613363576133626145f8565b5b600260008373ffffffffffffffffffffffffffffffffffffffff1673ffffffffffffffffffffffffffffffffffffffff16815260200190815260200160002060030160009054906101000a900460ff1660028111156133c5576133c46145f8565b5b14613405576040517f08c379a00000000000000000000000000000000000000000000000000000000081526004016133fc90615546565b60405180910390fd5b60006004858154811061341b5761341a614d1d565b5b906000526020600020906003020190508381600101908161343c9190615265565b50828160020160006101000a81548160ff021916908360ff160217905550818160020160016101000a81548173ffffffffffffffffffffffffffffffffffffffff021916908373ffffffffffffffffffffffffffffffffffffffff160217905550847f1a4e3a1bc57bb7b519fd2e5f7ee36d9dd8b5b0bb666a5e20cb88e22bf5798fe585846040516134cf929190615566565b60405180910390a25050505050565b60606002808111156134f3576134f26145f8565b5b600260003373ffffffffffffffffffffffffffffffffffffffff1673ffffffffffffffffffffffffffffffffffffffff16815260200190815260200160002060030160009054906101000a900460ff166002811115613555576135546145f8565b5b14613595576040517f08c379a000000000000000000000000000000000000000000000000000000000815260040161358c90614dbe565b60405180910390fd5b600060038054905067ffffffffffffffff8111156135b6576135b5613fac565b5b6040519080825280602002602001820160405280156135ef57816020015b6135dc613b07565b8152602001906001900390816135d45790505b50905060005b60038054905081101561383f57600260006003838154811061361a57613619614d1d565b5b9060005260206000200160009054906101000a900473ffffffffffffffffffffffffffffffffffffffff1673ffffffffffffffffffffffffffffffffffffffff1673ffffffffffffffffffffffffffffffffffffffff1681526020019081526020016000206040518060a001604052908160008201805461369a90614be3565b80601f01602080910402602001604051908101604052809291908181526020018280546136c690614be3565b80156137135780601f106136e857610100808354040283529160200191613713565b820191906000526020600020905b8154815290600101906020018083116136f657829003601f168201915b5050505050815260200160018201805461372c90614be3565b80601f016020809104026020016040519081016040528092919081815260200182805461375890614be3565b80156137a55780601f1061377a576101008083540402835291602001916137a5565b820191906000526020600020905b81548152906001019060200180831161378857829003601f168201915b50505050508152602001600282015481526020016003820160009054906101000a900460ff1660028111156137dd576137dc6145f8565b5b60028111156137ef576137ee6145f8565b5b81526020016003820160019054906101000a900460ff16151515158152505082828151811061382157613820614d1d565b5b6020026020010181905250808061383790614cd5565b9150506135f5565b508091505090565b61384f613922565b600073ffffffffffffffffffffffffffffffffffffffff168173ffffffffffffffffffffffffffffffffffffffff16036138be576040517f08c379a00000000000000000000000000000000000000000000000000000000081526004016138b5906156bc565b60405180910390fd5b6138c7816139a0565b50565b60026001540361390f576040517f08c379a000000000000000000000000000000000000000000000000000000000815260040161390690615728565b60405180910390fd5b6002600181905550565b60018081905550565b61392a613a64565b73ffffffffffffffffffffffffffffffffffffffff166139486122ae565b73ffffffffffffffffffffffffffffffffffffffff161461399e576040517f08c379a000000000000000000000000000000000000000000000000000000000815260040161399590615794565b60405180910390fd5b565b60008060009054906101000a900473ffffffffffffffffffffffffffffffffffffffff169050816000806101000a81548173ffffffffffffffffffffffffffffffffffffffff021916908373ffffffffffffffffffffffffffffffffffffffff1602179055508173ffffffffffffffffffffffffffffffffffffffff168173ffffffffffffffffffffffffffffffffffffffff167f8be0079c531659141344cd1fd0a4f28419497f9722a3daafe3b4186f6b6457e060405160405180910390a35050565b600033905090565b6040518060a001604052806000815260200160608152602001600060ff168152602001600073ffffffffffffffffffffffffffffffffffffffff1681526020016000151581525090565b6040518060c0016040528060008152602001600060ff1681526020016060815260200160008152602001600015158152602001600073ffffffffffffffffffffffffffffffffffffffff1681525090565b6040518060a0016040528060608152602001606081526020016000801916815260200160006002811115613b3e57613b3d6145f8565b5b81526020016000151581525090565b6000604051905090565b600080fd5b600080fd5b6000819050919050565b613b7481613b61565b8114613b7f57600080fd5b50565b600081359050613b9181613b6b565b92915050565b600060208284031215613bad57613bac613b57565b5b6000613bbb84828501613b82565b91505092915050565b600081519050919050565b600082825260208201905092915050565b6000819050602082019050919050565b613bf981613b61565b82525050565b600060ff82169050919050565b613c1581613bff565b82525050565b600081519050919050565b600082825260208201905092915050565b60005b83811015613c55578082015181840152602081019050613c3a565b60008484015250505050565b6000601f19601f8301169050919050565b6000613c7d82613c1b565b613c878185613c26565b9350613c97818560208601613c37565b613ca081613c61565b840191505092915050565b60008115159050919050565b613cc081613cab565b82525050565b600073ffffffffffffffffffffffffffffffffffffffff82169050919050565b6000613cf182613cc6565b9050919050565b613d0181613ce6565b82525050565b600060c083016000830151613d1f6000860182613bf0565b506020830151613d326020860182613c0c565b5060408301518482036040860152613d4a8282613c72565b9150506060830151613d5f6060860182613bf0565b506080830151613d726080860182613cb7565b5060a0830151613d8560a0860182613cf8565b508091505092915050565b6000613d9c8383613d07565b905092915050565b6000602082019050919050565b6000613dbc82613bc4565b613dc68185613bcf565b935083602082028501613dd885613be0565b8060005b85811015613e145784840389528151613df58582613d90565b9450613e0083613da4565b925060208a01995050600181019050613ddc565b50829750879550505050505092915050565b60006020820190508181036000830152613e408184613db1565b905092915050565b600081519050919050565b600082825260208201905092915050565b6000819050602082019050919050565b600060a083016000830151613e8c6000860182613bf0565b5060208301518482036020860152613ea48282613c72565b9150506040830151613eb96040860182613c0c565b506060830151613ecc6060860182613cf8565b506080830151613edf6080860182613cb7565b508091505092915050565b6000613ef68383613e74565b905092915050565b6000602082019050919050565b6000613f1682613e48565b613f208185613e53565b935083602082028501613f3285613e64565b8060005b85811015613f6e5784840389528151613f4f8582613eea565b9450613f5a83613efe565b925060208a01995050600181019050613f36565b50829750879550505050505092915050565b60006020820190508181036000830152613f9a8184613f0b565b905092915050565b600080fd5b600080fd5b7f4e487b7100000000000000000000000000000000000000000000000000000000600052604160045260246000fd5b613fe482613c61565b810181811067ffffffffffffffff8211171561400357614002613fac565b5b80604052505050565b6000614016613b4d565b90506140228282613fdb565b919050565b600067ffffffffffffffff82111561404257614041613fac565b5b61404b82613c61565b9050602081019050919050565b82818337600083830152505050565b600061407a61407584614027565b61400c565b90508281526020810184848401111561409657614095613fa7565b5b6140a1848285614058565b509392505050565b600082601f8301126140be576140bd613fa2565b5b81356140ce848260208601614067565b91505092915050565b6000819050919050565b6140ea816140d7565b81146140f557600080fd5b50565b600081359050614107816140e1565b92915050565b6000806040838503121561412457614123613b57565b5b600083013567ffffffffffffffff81111561414257614141613b5c565b5b61414e858286016140a9565b925050602061415f858286016140f8565b9150509250929050565b61417281613cab565b82525050565b600060208201905061418d6000830184614169565b92915050565b600080604083850312156141aa576141a9613b57565b5b60006141b885828601613b82565b92505060206141c985828601613b82565b9150509250929050565b6141dc81613b61565b82525050565b6141eb81613bff565b82525050565b600082825260208201905092915050565b600061420d82613c1b565b61421781856141f1565b9350614227818560208601613c37565b61423081613c61565b840191505092915050565b61424481613ce6565b82525050565b600060c08201905061425f60008301896141d3565b61426c60208301886141e2565b818103604083015261427e8187614202565b905061428d60608301866141d3565b61429a6080830185614169565b6142a760a083018461423b565b979650505050505050565b6142bb81613ce6565b81146142c657600080fd5b50565b6000813590506142d8816142b2565b92915050565b600080604083850312156142f5576142f4613b57565b5b600061430385828601613b82565b9250506020614314858286016142c9565b9150509250929050565b6000806040838503121561433557614334613b57565b5b6000614343858286016140f8565b9250506020614354858286016140f8565b9150509250929050565b6000602082019050614373600083018461423b565b92915050565b6003811061438657600080fd5b50565b60008135905061439881614379565b92915050565b600080600080608085870312156143b8576143b7613b57565b5b600085013567ffffffffffffffff8111156143d6576143d5613b5c565b5b6143e2878288016140a9565b945050602085013567ffffffffffffffff81111561440357614402613b5c565b5b61440f878288016140a9565b9350506040614420878288016140f8565b925050606061443187828801614389565b91505092959194509250565b61444681613bff565b811461445157600080fd5b50565b6000813590506144638161443d565b92915050565b61447281613cab565b811461447d57600080fd5b50565b60008135905061448f81614469565b92915050565b600080600080608085870312156144af576144ae613b57565b5b60006144bd87828801613b82565b94505060206144ce87828801614454565b935050604085013567ffffffffffffffff8111156144ef576144ee613b5c565b5b6144fb878288016140a9565b925050606061450c87828801614480565b91505092959194509250565b600081519050919050565b600082825260208201905092915050565b6000819050602082019050919050565b60006145508383613cf8565b60208301905092915050565b6000602082019050919050565b600061457482614518565b61457e8185614523565b935061458983614534565b8060005b838110156145ba5781516145a18882614544565b97506145ac8361455c565b92505060018101905061458d565b5085935050505092915050565b600060208201905081810360008301526145e18184614569565b905092915050565b6145f2816140d7565b82525050565b7f4e487b7100000000000000000000000000000000000000000000000000000000600052602160045260246000fd5b60038110614638576146376145f8565b5b50565b600081905061464982614627565b919050565b60006146598261463b565b9050919050565b6146698161464e565b82525050565b600060a083016000830151848203600086015261468c8282613c72565b915050602083015184820360208601526146a68282613c72565b91505060408301516146bb60408601826145e9565b5060608301516146ce6060860182614660565b5060808301516146e16080860182613cb7565b508091505092915050565b60006020820190508181036000830152614706818461466f565b905092915050565b600060a08201905061472360008301886141d3565b81810360208301526147358187614202565b905061474460408301866141e2565b614751606083018561423b565b61475e6080830184614169565b9695505050505050565b60008060006060848603121561478157614780613b57565b5b600084013567ffffffffffffffff81111561479f5761479e613b5c565b5b6147ab868287016140a9565b93505060206147bc86828701614454565b92505060406147cd868287016142c9565b9150509250925092565b6000602082840312156147ed576147ec613b57565b5b60006147fb848285016142c9565b91505092915050565b61480d816140d7565b82525050565b61481c8161464e565b82525050565b600060a082019050818103600083015261483c8188614202565b905081810360208301526148508187614202565b905061485f6040830186614804565b61486c6060830185614813565b6148796080830184614169565b9695505050505050565b60006020828403121561489957614898613b57565b5b600082013567ffffffffffffffff8111156148b7576148b6613b5c565b5b6148c3848285016140a9565b91505092915050565b600060a0830160008301516148e46000860182613bf0565b50602083015184820360208601526148fc8282613c72565b91505060408301516149116040860182613c0c565b5060608301516149246060860182613cf8565b5060808301516149376080860182613cb7565b508091505092915050565b6000602082019050818103600083015261495c81846148cc565b905092915050565b6000806000806080858703121561497e5761497d613b57565b5b600061498c87828801613b82565b945050602085013567ffffffffffffffff8111156149ad576149ac613b5c565b5b6149b9878288016140a9565b93505060406149ca87828801614454565b92505060606149db878288016142c9565b91505092959194509250565b600081519050919050565b600082825260208201905092915050565b6000819050602082019050919050565b600060a0830160008301518482036000860152614a308282613c72565b91505060208301518482036020860152614a4a8282613c72565b9150506040830151614a5f60408601826145e9565b506060830151614a726060860182614660565b506080830151614a856080860182613cb7565b508091505092915050565b6000614a9c8383614a13565b905092915050565b6000602082019050919050565b6000614abc826149e7565b614ac681856149f2565b935083602082028501614ad885614a03565b8060005b85811015614b145784840389528151614af58582614a90565b9450614b0083614aa4565b925060208a01995050600181019050614adc565b50829750879550505050505092915050565b60006020820190508181036000830152614b408184614ab1565b905092915050565b7f436f7572736520646f6573206e6f742065786973740000000000000000000000600082015250565b6000614b7e6015836141f1565b9150614b8982614b48565b602082019050919050565b60006020820190508181036000830152614bad81614b71565b9050919050565b7f4e487b7100000000000000000000000000000000000000000000000000000000600052602260045260246000fd5b60006002820490506001821680614bfb57607f821691505b602082108103614c0e57614c0d614bb4565b5b50919050565b7f4f6e6c792073747564656e742063616e20706572666f726d207468697320616360008201527f74696f6e00000000000000000000000000000000000000000000000000000000602082015250565b6000614c706024836141f1565b9150614c7b82614c14565b604082019050919050565b60006020820190508181036000830152614c9f81614c63565b9050919050565b7f4e487b7100000000000000000000000000000000000000000000000000000000600052601160045260246000fd5b6000614ce082613b61565b91507fffffffffffffffffffffffffffffffffffffffffffffffffffffffffffffffff8203614d1257614d11614ca6565b5b600182019050919050565b7f4e487b7100000000000000000000000000000000000000000000000000000000600052603260045260246000fd5b7f4f6e6c792061646d696e2063616e20706572666f726d2074686973206163746960008201527f6f6e000000000000000000000000000000000000000000000000000000000000602082015250565b6000614da86022836141f1565b9150614db382614d4c565b604082019050919050565b60006020820190508181036000830152614dd781614d9b565b9050919050565b7f4e6f7420612073747564656e7400000000000000000000000000000000000000600082015250565b6000614e14600d836141f1565b9150614e1f82614dde565b602082019050919050565b60006020820190508181036000830152614e4381614e07565b9050919050565b7f55736572206e6f74207265676973746572656400000000000000000000000000600082015250565b6000614e806013836141f1565b9150614e8b82614e4a565b602082019050919050565b60006020820190508181036000830152614eaf81614e73565b9050919050565b7f496e636f7272656374206f6c642070617373776f726400000000000000000000600082015250565b6000614eec6016836141f1565b9150614ef782614eb6565b602082019050919050565b60006020820190508181036000830152614f1b81614edf565b9050919050565b7f5573657220616c72656164792072656769737465726564000000000000000000600082015250565b6000614f586017836141f1565b9150614f6382614f22565b602082019050919050565b60006020820190508181036000830152614f8781614f4b565b9050919050565b7f43616e6e6f742072656769737465722061732061646d696e0000000000000000600082015250565b6000614fc46018836141f1565b9150614fcf82614f8e565b602082019050919050565b60006020820190508181036000830152614ff381614fb7565b9050919050565b600081905092915050565b600061501082613c1b565b61501a8185614ffa565b935061502a818560208601613c37565b80840191505092915050565b60006150428284615005565b915081905092915050565b7f5573657220494420616c72656164792065786973747300000000000000000000600082015250565b60006150836016836141f1565b915061508e8261504d565b602082019050919050565b600060208201905081810360008301526150b281615076565b9050919050565b60008190508160005260206000209050919050565b60006020601f8301049050919050565b600082821b905092915050565b60006008830261511b7fffffffffffffffffffffffffffffffffffffffffffffffffffffffffffffffff826150de565b61512586836150de565b95508019841693508086168417925050509392505050565b6000819050919050565b600061516261515d61515884613b61565b61513d565b613b61565b9050919050565b6000819050919050565b61517c83615147565b61519061518882615169565b8484546150eb565b825550505050565b600090565b6151a5615198565b6151b0818484615173565b505050565b5b818110156151d4576151c960008261519d565b6001810190506151b6565b5050565b601f821115615219576151ea816150b9565b6151f3846150ce565b81016020851015615202578190505b61521661520e856150ce565b8301826151b5565b50505b505050565b600082821c905092915050565b600061523c6000198460080261521e565b1980831691505092915050565b6000615255838361522b565b9150826002028217905092915050565b61526e82613c1b565b67ffffffffffffffff81111561528757615286613fac565b5b6152918254614be3565b61529c8282856151d8565b600060209050601f8311600181146152cf57600084156152bd578287015190505b6152c78582615249565b86555061532f565b601f1984166152dd866150b9565b60005b82811015615305578489015182556001820191506020850194506020810190506152e0565b86831015615322578489015161531e601f89168261522b565b8355505b6001600288020188555050505b505050505050565b600060408201905081810360008301526153518185614202565b90506153606020830184614813565b9392505050565b7f53747564656e7420686173206e6f742074616b656e207468697320636f75727360008201527f6500000000000000000000000000000000000000000000000000000000000000602082015250565b60006153c36021836141f1565b91506153ce82615367565b604082019050919050565b600060208201905081810360008301526153f2816153b6565b9050919050565b7f53636f7265206d757374206265206265747765656e203120616e642035000000600082015250565b600061542f601d836141f1565b915061543a826153f9565b602082019050919050565b6000602082019050818103600083015261545e81615422565b9050919050565b600060408201905061547a600083018561423b565b61548760208301846141e2565b9392505050565b7f496e76616c696420746561636865722061646472657373000000000000000000600082015250565b60006154c46017836141f1565b91506154cf8261548e565b602082019050919050565b600060208201905081810360008301526154f3816154b7565b9050919050565b7f54656163686572206e6f74207265676973746572656400000000000000000000600082015250565b60006155306016836141f1565b915061553b826154fa565b602082019050919050565b6000602082019050818103600083015261555f81615523565b9050919050565b600060408201905081810360008301526155808185614202565b905061558f602083018461423b565b9392505050565b600060208201905081810360008301526155b08184614202565b905092915050565b7f4f6e6c7920746561636865722063616e20706572666f726d207468697320616360008201527f74696f6e00000000000000000000000000000000000000000000000000000000602082015250565b60006156146024836141f1565b915061561f826155b8565b604082019050919050565b6000602082019050818103600083015261564381615607565b9050919050565b7f4f776e61626c653a206e6577206f776e657220697320746865207a65726f206160008201527f6464726573730000000000000000000000000000000000000000000000000000602082015250565b60006156a66026836141f1565b91506156b18261564a565b604082019050919050565b600060208201905081810360008301526156d581615699565b9050919050565b7f5265656e7472616e637947756172643a207265656e7472616e742063616c6c00600082015250565b6000615712601f836141f1565b915061571d826156dc565b602082019050919050565b6000602082019050818103600083015261574181615705565b9050919050565b7f4f776e61626c653a2063616c6c6572206973206e6f7420746865206f776e6572600082015250565b600061577e6020836141f1565b915061578982615748565b602082019050919050565b600060208201905081810360008301526157ad81615771565b905091905056fea2646970667358221220dbf9c59e209e50d4c7f9512534a448a394eb77d9828cb3e62f27bf87491aee8964736f6c63430008130033",
  "linkReferences": {},
  "deployedLinkReferences": {}
}