{
  "_format": "hh-sol-artifact-1",
  "contractName": "ChainEval",
  "sourceName": "contracts/ChainEval.sol",
  "abi": [
    {
      "inputs": [],
      "stateMutability": "nonpayable",
      "type": "constructor"
    },
    {
      "anonymous": false,
      "inputs": [
        {
          "indexed": true,
          "internalType": "uint256",
          "name": "courseId",
          "type": "uint256"
        },
        {
          "indexed": false,
          "internalType": "string",
          "name": "name",
          "type": "string"
        },
        {
          "indexed": false,
          "internalType": "address",
          "name": "teacher",
          "type": "address"
        }
      ],
      "name": "CourseAdded",
      "type": "event"
    },
    {
      "anonymous": false,
      "inputs": [
        {
          "indexed": true,
          "internalType": "uint256",
          "name": "courseId",
          "type": "uint256"
        },
        {
          "indexed": false,
          "internalType": "string",
          "name": "name",
          "type": "string"
        },
        {
          "indexed": false,
          "internalType": "address",
          "name": "teacher",
          "type": "address"
        }
      ],
      "name": "CourseUpdated",
      "type": "event"
    },
    {
      "anonymous": false,
      "inputs": [
        {
          "indexed": true,
          "internalType": "uint256",
          "name": "courseId",
          "type": "uint256"
        },
        {
          "indexed": false,
          "internalType": "address",
          "name": "student",
          "type": "address"
        },
        {
          "indexed": false,
          "internalType": "uint8",
          "name": "score",
          "type": "uint8"
        }
      ],
      "name": "EvaluationSubmitted",
      "type": "event"
    },
    {
      "anonymous": false,
      "inputs": [
        {
          "indexed": true,
          "internalType": "address",
          "name": "previousOwner",
          "type": "address"
        },
        {
          "indexed": true,
          "internalType": "address",
          "name": "newOwner",
          "type": "address"
        }
      ],
      "name": "OwnershipTransferred",
      "type": "event"
    },
    {
      "anonymous": false,
      "inputs": [
        {
          "indexed": true,
          "internalType": "address",
          "name": "userAddress",
          "type": "address"
        }
      ],
      "name": "UserPasswordChanged",
      "type": "event"
    },
    {
      "anonymous": false,
      "inputs": [
        {
          "indexed": true,
          "internalType": "address",
          "name": "userAddress",
          "type": "address"
        },
        {
          "indexed": false,
          "internalType": "string",
          "name": "email",
          "type": "string"
        }
      ],
      "name": "UserProfileUpdated",
      "type": "event"
    },
    {
      "anonymous": false,
      "inputs": [
        {
          "indexed": true,
          "internalType": "address",
          "name": "userAddress",
          "type": "address"
        },
        {
          "indexed": false,
          "internalType": "string",
          "name": "id",
          "type": "string"
        },
        {
          "indexed": false,
          "internalType": "enum ChainEval.Role",
          "name": "role",
          "type": "uint8"
        }
      ],
      "name": "UserRegistered",
      "type": "event"
    },
    {
      "inputs": [
        {
          "internalType": "string",
          "name": "_name",
          "type": "string"
        },
        {
          "internalType": "uint8",
          "name": "_credits",
          "type": "uint8"
        },
        {
          "internalType": "address",
          "name": "_teacher",
          "type": "address"
        }
      ],
      "name": "addCourse",
      "outputs": [],
      "stateMutability": "nonpayable",
      "type": "function"
    },
    {
      "inputs": [
        {
          "internalType": "bytes32",
          "name": "_oldPasswordHash",
          "type": "bytes32"
        },
        {
          "internalType": "bytes32",
          "name": "_newPasswordHash",
          "type": "bytes32"
        }
      ],
      "name": "changePassword",
      "outputs": [],
      "stateMutability": "nonpayable",
      "type": "function"
    },
    {
      "inputs": [
        {
          "internalType": "uint256",
          "name": "",
          "type": "uint256"
        },
        {
          "internalType": "uint256",
          "name": "",
          "type": "uint256"
        }
      ],
      "name": "courseEvaluations",
      "outputs": [
        {
          "internalType": "uint8",
          "name": "score",
          "type": "uint8"
        },
        {
          "internalType": "string",
          "name": "comment",
          "type": "string"
        },
        {
          "internalType": "uint256",
          "name": "timestamp",
          "type": "uint256"
        },
        {
          "internalType": "bool",
          "name": "isAnonymous",
          "type": "bool"
        },
        {
          "internalType": "address",
          "name": "student",
          "type": "address"
        }
      ],
      "stateMutability": "view",
      "type": "function"
    },
    {
      "inputs": [
        {
          "internalType": "uint256",
          "name": "",
          "type": "uint256"
        }
      ],
      "name": "courses",
      "outputs": [
        {
          "internalType": "uint256",
          "name": "id",
          "type": "uint256"
        },
        {
          "internalType": "string",
          "name": "name",
          "type": "string"
        },
        {
          "internalType": "uint8",
          "name": "credits",
          "type": "uint8"
        },
        {
          "internalType": "address",
          "name": "teacher",
          "type": "address"
        },
        {
          "internalType": "bool",
          "name": "isActive",
          "type": "bool"
        }
      ],
      "stateMutability": "view",
      "type": "function"
    },
    {
      "inputs": [],
      "name": "getAllCourses",
      "outputs": [
        {
          "components": [
            {
              "internalType": "uint256",
              "name": "id",
              "type": "uint256"
            },
            {
              "internalType": "string",
              "name": "name",
              "type": "string"
            },
            {
              "internalType": "uint8",
              "name": "credits",
              "type": "uint8"
            },
            {
              "internalType": "address",
              "name": "teacher",
              "type": "address"
            },
            {
              "internalType": "bool",
              "name": "isActive",
              "type": "bool"
            }
          ],
          "internalType": "struct ChainEval.Course[]",
          "name": "",
          "type": "tuple[]"
        }
      ],
      "stateMutability": "view",
      "type": "function"
    },
    {
      "inputs": [],
      "name": "getAllUsers",
      "outputs": [
        {
          "components": [
            {
              "internalType": "string",
              "name": "id",
              "type": "string"
            },
            {
              "internalType": "string",
              "name": "email",
              "type": "string"
            },
            {
              "internalType": "bytes32",
              "name": "passwordHash",
              "type": "bytes32"
            },
            {
              "internalType": "enum ChainEval.Role",
              "name": "role",
              "type": "uint8"
            },
            {
              "internalType": "bool",
              "name": "isRegistered",
              "type": "bool"
            }
          ],
          "internalType": "struct ChainEval.User[]",
          "name": "",
          "type": "tuple[]"
        }
      ],
      "stateMutability": "view",
      "type": "function"
    },
    {
      "inputs": [
        {
          "internalType": "uint256",
          "name": "_courseId",
          "type": "uint256"
        }
      ],
      "name": "getCourseDetail",
      "outputs": [
        {
          "components": [
            {
              "internalType": "uint256",
              "name": "id",
              "type": "uint256"
            },
            {
              "internalType": "string",
              "name": "name",
              "type": "string"
            },
            {
              "internalType": "uint8",
              "name": "credits",
              "type": "uint8"
            },
            {
              "internalType": "address",
              "name": "teacher",
              "type": "address"
            },
            {
              "internalType": "bool",
              "name": "isActive",
              "type": "bool"
            }
          ],
          "internalType": "struct ChainEval.Course",
          "name": "",
          "type": "tuple"
        }
      ],
      "stateMutability": "view",
      "type": "function"
    },
    {
      "inputs": [
        {
          "internalType": "uint256",
          "name": "_courseId",
          "type": "uint256"
        }
      ],
      "name": "getCourseEvaluations",
      "outputs": [
        {
          "components": [
            {
              "internalType": "uint8",
              "name": "score",
              "type": "uint8"
            },
            {
              "internalType": "string",
              "name": "comment",
              "type": "string"
            },
            {
              "internalType": "uint256",
              "name": "timestamp",
              "type": "uint256"
            },
            {
              "internalType": "bool",
              "name": "isAnonymous",
              "type": "bool"
            },
            {
              "internalType": "address",
              "name": "student",
              "type": "address"
            }
          ],
          "internalType": "struct ChainEval.Evaluation[]",
          "name": "",
          "type": "tuple[]"
        }
      ],
      "stateMutability": "view",
      "type": "function"
    },
    {
      "inputs": [
        {
          "internalType": "uint256",
          "name": "_courseId",
          "type": "uint256"
        }
      ],
      "name": "getCourseStudents",
      "outputs": [
        {
          "internalType": "address[]",
          "name": "",
          "type": "address[]"
        }
      ],
      "stateMutability": "view",
      "type": "function"
    },
    {
      "inputs": [],
      "name": "getCurrentUserInfo",
      "outputs": [
        {
          "components": [
            {
              "internalType": "string",
              "name": "id",
              "type": "string"
            },
            {
              "internalType": "string",
              "name": "email",
              "type": "string"
            },
            {
              "internalType": "bytes32",
              "name": "passwordHash",
              "type": "bytes32"
            },
            {
              "internalType": "enum ChainEval.Role",
              "name": "role",
              "type": "uint8"
            },
            {
              "internalType": "bool",
              "name": "isRegistered",
              "type": "bool"
            }
          ],
          "internalType": "struct ChainEval.User",
          "name": "",
          "type": "tuple"
        }
      ],
      "stateMutability": "view",
      "type": "function"
    },
    {
      "inputs": [],
      "name": "getStudentEvaluations",
      "outputs": [
        {
          "components": [
            {
              "internalType": "uint8",
              "name": "score",
              "type": "uint8"
            },
            {
              "internalType": "string",
              "name": "comment",
              "type": "string"
            },
            {
              "internalType": "uint256",
              "name": "timestamp",
              "type": "uint256"
            },
            {
              "internalType": "bool",
              "name": "isAnonymous",
              "type": "bool"
            },
            {
              "internalType": "address",
              "name": "student",
              "type": "address"
            }
          ],
          "internalType": "struct ChainEval.Evaluation[]",
          "name": "",
          "type": "tuple[]"
        }
      ],
      "stateMutability": "view",
      "type": "function"
    },
    {
      "inputs": [],
      "name": "getStudentTakenCourses",
      "outputs": [
        {
          "components": [
            {
              "internalType": "uint256",
              "name": "id",
              "type": "uint256"
            },
            {
              "internalType": "string",
              "name": "name",
              "type": "string"
            },
            {
              "internalType": "uint8",
              "name": "credits",
              "type": "uint8"
            },
            {
              "internalType": "address",
              "name": "teacher",
              "type": "address"
            },
            {
              "internalType": "bool",
              "name": "isActive",
              "type": "bool"
            }
          ],
          "internalType": "struct ChainEval.Course[]",
          "name": "",
          "type": "tuple[]"
        }
      ],
      "stateMutability": "view",
      "type": "function"
    },
    {
      "inputs": [],
      "name": "getTeacherCourses",
      "outputs": [
        {
          "components": [
            {
              "internalType": "uint256",
              "name": "id",
              "type": "uint256"
            },
            {
              "internalType": "string",
              "name": "name",
              "type": "string"
            },
            {
              "internalType": "uint8",
              "name": "credits",
              "type": "uint8"
            },
            {
              "internalType": "address",
              "name": "teacher",
              "type": "address"
            },
            {
              "internalType": "bool",
              "name": "isActive",
              "type": "bool"
            }
          ],
          "internalType": "struct ChainEval.Course[]",
          "name": "",
          "type": "tuple[]"
        }
      ],
      "stateMutability": "view",
      "type": "function"
    },
    {
      "inputs": [
        {
          "internalType": "string",
          "name": "_id",
          "type": "string"
        },
        {
          "internalType": "bytes32",
          "name": "_passwordHash",
          "type": "bytes32"
        }
      ],
      "name": "login",
      "outputs": [
        {
          "internalType": "bool",
          "name": "",
          "type": "bool"
        }
      ],
      "stateMutability": "view",
      "type": "function"
    },
    {
      "inputs": [
        {
          "internalType": "uint256",
          "name": "_courseId",
          "type": "uint256"
        },
        {
          "internalType": "address",
          "name": "_student",
          "type": "address"
        }
      ],
      "name": "markStudentCourse",
      "outputs": [],
      "stateMutability": "nonpayable",
      "type": "function"
    },
    {
      "inputs": [],
      "name": "owner",
      "outputs": [
        {
          "internalType": "address",
          "name": "",
          "type": "address"
        }
      ],
      "stateMutability": "view",
      "type": "function"
    },
    {
      "inputs": [
        {
          "internalType": "string",
          "name": "_id",
          "type": "string"
        },
        {
          "internalType": "string",
          "name": "_email",
          "type": "string"
        },
        {
          "internalType": "bytes32",
          "name": "_passwordHash",
          "type": "bytes32"
        },
        {
          "internalType": "enum ChainEval.Role",
          "name": "_role",
          "type": "uint8"
        }
      ],
      "name": "register",
      "outputs": [],
      "stateMutability": "nonpayable",
      "type": "function"
    },
    {
      "inputs": [],
      "name": "renounceOwnership",
      "outputs": [],
      "stateMutability": "nonpayable",
      "type": "function"
    },
    {
      "inputs": [
        {
          "internalType": "uint256",
          "name": "",
          "type": "uint256"
        },
        {
          "internalType": "address",
          "name": "",
          "type": "address"
        }
      ],
      "name": "studentCourses",
      "outputs": [
        {
          "internalType": "bool",
          "name": "",
          "type": "bool"
        }
      ],
      "stateMutability": "view",
      "type": "function"
    },
    {
      "inputs": [
        {
          "internalType": "address",
          "name": "",
          "type": "address"
        },
        {
          "internalType": "uint256",
          "name": "",
          "type": "uint256"
        }
      ],
      "name": "studentEvaluationIds",
      "outputs": [
        {
          "internalType": "uint256",
          "name": "",
          "type": "uint256"
        }
      ],
      "stateMutability": "view",
      "type": "function"
    },
    {
      "inputs": [
        {
          "internalType": "uint256",
          "name": "_courseId",
          "type": "uint256"
        },
        {
          "internalType": "uint8",
          "name": "_score",
          "type": "uint8"
        },
        {
          "internalType": "string",
          "name": "_comment",
          "type": "string"
        },
        {
          "internalType": "bool",
          "name": "_isAnonymous",
          "type": "bool"
        }
      ],
      "name": "submitEvaluation",
      "outputs": [],
      "stateMutability": "nonpayable",
      "type": "function"
    },
    {
      "inputs": [
        {
          "internalType": "address",
          "name": "newOwner",
          "type": "address"
        }
      ],
      "name": "transferOwnership",
      "outputs": [],
      "stateMutability": "nonpayable",
      "type": "function"
    },
    {
      "inputs": [
        {
          "internalType": "uint256",
          "name": "_courseId",
          "type": "uint256"
        },
        {
          "internalType": "string",
          "name": "_name",
          "type": "string"
        },
        {
          "internalType": "uint8",
          "name": "_credits",
          "type": "uint8"
        },
        {
          "internalType": "address",
          "name": "_teacher",
          "type": "address"
        }
      ],
      "name": "updateCourse",
      "outputs": [],
      "stateMutability": "nonpayable",
      "type": "function"
    },
    {
      "inputs": [
        {
          "internalType": "string",
          "name": "_newEmail",
          "type": "string"
        }
      ],
      "name": "updateUserProfile",
      "outputs": [],
      "stateMutability": "nonpayable",
      "type": "function"
    },
    {
      "inputs": [
        {
          "internalType": "string",
          "name": "",
          "type": "string"
        }
      ],
      "name": "usedUserIds",
      "outputs": [
        {
          "internalType": "bool",
          "name": "",
          "type": "bool"
        }
      ],
      "stateMutability": "view",
      "type": "function"
    },
    {
      "inputs": [
        {
          "internalType": "uint256",
          "name": "",
          "type": "uint256"
        }
      ],
      "name": "userAddresses",
      "outputs": [
        {
          "internalType": "address",
          "name": "",
          "type": "address"
        }
      ],
      "stateMutability": "view",
      "type": "function"
    },
    {
      "inputs": [
        {
          "internalType": "address",
          "name": "",
          "type": "address"
        }
      ],
      "name": "users",
      "outputs": [
        {
          "internalType": "string",
          "name": "id",
          "type": "string"
        },
        {
          "internalType": "string",
          "name": "email",
          "type": "string"
        },
        {
          "internalType": "bytes32",
          "name": "passwordHash",
          "type": "bytes32"
        },
        {
          "internalType": "enum ChainEval.Role",
          "name": "role",
          "type": "uint8"
        },
        {
          "internalType": "bool",
          "name": "isRegistered",
          "type": "bool"
        }
      ],
      "stateMutability": "view",
      "type": "function"
    }
  ],
  "bytecode": "0x60806040523480156200001157600080fd5b506200003262000026620002a560201b60201c565b620002ad60201b60201c565b600180819055506040518060a001604052806040518060400160405280600581526020017f41444d494e00000000000000000000000000000000000000000000000000000081525081526020016040518060400160405280601181526020017f313439343133333130344071712e636f6d00000000000000000000000000000081525081526020016000801b8152602001600280811115620000d957620000d862000371565b5b815260200160011515815250600260003373ffffffffffffffffffffffffffffffffffffffff1673ffffffffffffffffffffffffffffffffffffffff16815260200190815260200160002060008201518160000190816200013b91906200061a565b5060208201518160010190816200015391906200061a565b506040820151816002015560608201518160030160006101000a81548160ff021916908360028111156200018c576200018b62000371565b5b021790555060808201518160030160016101000a81548160ff0219169083151502179055509050506003339080600181540180825580915050600190039060005260206000200160009091909190916101000a81548173ffffffffffffffffffffffffffffffffffffffff021916908373ffffffffffffffffffffffffffffffffffffffff1602179055506001600860405162000229906200075c565b908152602001604051809103902060006101000a81548160ff0219169083151502179055503373ffffffffffffffffffffffffffffffffffffffff167fc2e5d5da58bd71d1a2d14cdef02a4256d971b728088f8190d067ccfbae3bd73e6002604051620002979190620007fc565b60405180910390a26200082e565b600033905090565b60008060009054906101000a900473ffffffffffffffffffffffffffffffffffffffff169050816000806101000a81548173ffffffffffffffffffffffffffffffffffffffff021916908373ffffffffffffffffffffffffffffffffffffffff1602179055508173ffffffffffffffffffffffffffffffffffffffff168173ffffffffffffffffffffffffffffffffffffffff167f8be0079c531659141344cd1fd0a4f28419497f9722a3daafe3b4186f6b6457e060405160405180910390a35050565b7f4e487b7100000000000000000000000000000000000000000000000000000000600052602160045260246000fd5b600081519050919050565b7f4e487b7100000000000000000000000000000000000000000000000000000000600052604160045260246000fd5b7f4e487b7100000000000000000000000000000000000000000000000000000000600052602260045260246000fd5b600060028204905060018216806200042257607f821691505b602082108103620004385762000437620003da565b5b50919050565b60008190508160005260206000209050919050565b60006020601f8301049050919050565b600082821b905092915050565b600060088302620004a27fffffffffffffffffffffffffffffffffffffffffffffffffffffffffffffffff8262000463565b620004ae868362000463565b95508019841693508086168417925050509392505050565b6000819050919050565b6000819050919050565b6000620004fb620004f5620004ef84620004c6565b620004d0565b620004c6565b9050919050565b6000819050919050565b6200051783620004da565b6200052f620005268262000502565b84845462000470565b825550505050565b600090565b6200054662000537565b620005538184846200050c565b505050565b5b818110156200057b576200056f6000826200053c565b60018101905062000559565b5050565b601f821115620005ca5762000594816200043e565b6200059f8462000453565b81016020851015620005af578190505b620005c7620005be8562000453565b83018262000558565b50505b505050565b600082821c905092915050565b6000620005ef60001984600802620005cf565b1980831691505092915050565b60006200060a8383620005dc565b9150826002028217905092915050565b6200062582620003a0565b67ffffffffffffffff811115620006415762000640620003ab565b5b6200064d825462000409565b6200065a8282856200057f565b600060209050601f8311600181146200069257600084156200067d578287015190505b620006898582620005fc565b865550620006f9565b601f198416620006a2866200043e565b60005b82811015620006cc57848901518255600182019150602085019450602081019050620006a5565b86831015620006ec5784890151620006e8601f891682620005dc565b8355505b6001600288020188555050505b505050505050565b600081905092915050565b7f41444d494e000000000000000000000000000000000000000000000000000000600082015250565b60006200074460058362000701565b915062000751826200070c565b600582019050919050565b6000620007698262000735565b9150819050919050565b600082825260208201905092915050565b60006200079360058362000773565b9150620007a0826200070c565b602082019050919050565b60038110620007bf57620007be62000371565b5b50565b6000819050620007d282620007ab565b919050565b6000620007e482620007c2565b9050919050565b620007f681620007d7565b82525050565b60006040820190508181036000830152620008178162000784565b9050620008286020830184620007eb565b92915050565b615a8b806200083e6000396000f3fe608060405234801561001057600080fd5b50600436106101a95760003560e01c8063760befbc116100f9578063ae86ffdb11610097578063c2cae96011610071578063c2cae96014610500578063c3ca217114610530578063e2842d791461054c578063f2fde38b1461056a576101a9565b8063ae86ffdb14610496578063b79367c4146104b2578063bf76d7c2146104e2576101a9565b80638f94fe1e116100d35780638f94fe1e146103f457806396f979d214610412578063a290868314610446578063a87430ba14610462576101a9565b8063760befbc146103885780637f6e3856146103a65780638da5cb5b146103d6576101a9565b80632025ca5411610166578063582b6e4111610140578063582b6e41146103165780635fa0e0f11461033257806360dd60e31461034e578063715018a61461037e576101a9565b80632025ca54146102ae578063292785fc146102ca578063502c9bd5146102e6576101a9565b8063016c14da146101ae57806302e30046146101de57806304e48bd1146101fc57806304f754061461021a578063181c5c821461024a57806319a166b91461027e575b600080fd5b6101c860048036038101906101c39190613dfe565b610586565b6040516101d5919061407a565b60405180910390f35b6101e6610769565b6040516101f391906141d4565b60405180910390f35b610204610b25565b60405161021191906141d4565b60405180910390f35b610234600480360381019061022f9190614361565b610cae565b60405161024191906143cc565b60405180910390f35b610264600480360381019061025f91906143e7565b610ebb565b60405161027595949392919061449e565b60405180910390f35b61029860048036038101906102939190614524565b610fd0565b6040516102a591906143cc565b60405180910390f35b6102c860048036038101906102c39190614524565b610fff565b005b6102e460048036038101906102df9190614564565b61121e565b005b61030060048036038101906102fb9190613dfe565b611387565b60405161030d91906145a4565b60405180910390f35b610330600480360381019061032b91906145e4565b6113c6565b005b61034c600480360381019061034791906146db565b61171c565b005b61036860048036038101906103639190613dfe565b611afe565b604051610375919061480d565b60405180910390f35b610386611dd5565b005b610390611de9565b60405161039d919061407a565b60405180910390f35b6103c060048036038101906103bb919061482f565b6124eb565b6040516103cd919061486f565b60405180910390f35b6103de61251c565b6040516103eb91906145a4565b60405180910390f35b6103fc612545565b604051610409919061498d565b60405180910390f35b61042c60048036038101906104279190613dfe565b6127af565b60405161043d9594939291906149af565b60405180910390f35b610460600480360381019061045b9190614a09565b6128b7565b005b61047c60048036038101906104779190614a78565b612bf3565b60405161048d959493929190614ac3565b60405180910390f35b6104b060048036038101906104ab9190614b24565b612d53565b005b6104cc60048036038101906104c79190613dfe565b612e89565b6040516104d99190614be3565b60405180910390f35b6104ea613036565b6040516104f791906141d4565b60405180910390f35b61051a60048036038101906105159190614b24565b61341c565b60405161052791906143cc565b60405180910390f35b61054a60048036038101906105459190614c05565b613452565b005b61055461374c565b6040516105619190614dc7565b60405180910390f35b610584600480360381019061057f9190614a78565b613ab5565b005b606060048054905082106105cf576040517f08c379a00000000000000000000000000000000000000000000000000000000081526004016105c690614e35565b60405180910390fd5b60066000838152602001908152602001600020805480602002602001604051908101604052809291908181526020016000905b8282101561075e57838290600052602060002090600402016040518060a00160405290816000820160009054906101000a900460ff1660ff1660ff16815260200160018201805461065290614e84565b80601f016020809104026020016040519081016040528092919081815260200182805461067e90614e84565b80156106cb5780601f106106a0576101008083540402835291602001916106cb565b820191906000526020600020905b8154815290600101906020018083116106ae57829003601f168201915b50505050508152602001600282015481526020016003820160009054906101000a900460ff161515151581526020016003820160019054906101000a900473ffffffffffffffffffffffffffffffffffffffff1673ffffffffffffffffffffffffffffffffffffffff1673ffffffffffffffffffffffffffffffffffffffff168152505081526020019060010190610602565b505050509050919050565b60606000600281111561077f5761077e614899565b5b600260003373ffffffffffffffffffffffffffffffffffffffff1673ffffffffffffffffffffffffffffffffffffffff16815260200190815260200160002060030160009054906101000a900460ff1660028111156107e1576107e0614899565b5b14610821576040517f08c379a000000000000000000000000000000000000000000000000000000000815260040161081890614f27565b60405180910390fd5b6000805b6004805490508110156108b7576005600082815260200190815260200160002060003373ffffffffffffffffffffffffffffffffffffffff1673ffffffffffffffffffffffffffffffffffffffff16815260200190815260200160002060009054906101000a900460ff16156108a45781806108a090614f76565b9250505b80806108af90614f76565b915050610825565b5060008167ffffffffffffffff8111156108d4576108d3614200565b5b60405190808252806020026020018201604052801561090d57816020015b6108fa613cda565b8152602001906001900390816108f25790505b5090506000805b600480549050811015610b1b576005600082815260200190815260200160002060003373ffffffffffffffffffffffffffffffffffffffff1673ffffffffffffffffffffffffffffffffffffffff16815260200190815260200160002060009054906101000a900460ff1615610b08576004818154811061099857610997614fbe565b5b90600052602060002090600302016040518060a0016040529081600082015481526020016001820180546109cb90614e84565b80601f01602080910402602001604051908101604052809291908181526020018280546109f790614e84565b8015610a445780601f10610a1957610100808354040283529160200191610a44565b820191906000526020600020905b815481529060010190602001808311610a2757829003601f168201915b505050505081526020016002820160009054906101000a900460ff1660ff1660ff1681526020016002820160019054906101000a900473ffffffffffffffffffffffffffffffffffffffff1673ffffffffffffffffffffffffffffffffffffffff1673ffffffffffffffffffffffffffffffffffffffff1681526020016002820160159054906101000a900460ff161515151581525050838381518110610aee57610aed614fbe565b5b60200260200101819052508180610b0490614f76565b9250505b8080610b1390614f76565b915050610914565b5081935050505090565b60606004805480602002602001604051908101604052809291908181526020016000905b82821015610ca557838290600052602060002090600302016040518060a001604052908160008201548152602001600182018054610b8690614e84565b80601f0160208091040260200160405190810160405280929190818152602001828054610bb290614e84565b8015610bff5780601f10610bd457610100808354040283529160200191610bff565b820191906000526020600020905b815481529060010190602001808311610be257829003601f168201915b505050505081526020016002820160009054906101000a900460ff1660ff1660ff1681526020016002820160019054906101000a900473ffffffffffffffffffffffffffffffffffffffff1673ffffffffffffffffffffffffffffffffffffffff1673ffffffffffffffffffffffffffffffffffffffff1681526020016002820160159054906101000a900460ff16151515158152505081526020019060010190610b49565b50505050905090565b600080600260003373ffffffffffffffffffffffffffffffffffffffff1673ffffffffffffffffffffffffffffffffffffffff1681526020019081526020016000206040518060a0016040529081600082018054610d0b90614e84565b80601f0160208091040260200160405190810160405280929190818152602001828054610d3790614e84565b8015610d845780601f10610d5957610100808354040283529160200191610d84565b820191906000526020600020905b815481529060010190602001808311610d6757829003601f168201915b50505050508152602001600182018054610d9d90614e84565b80601f0160208091040260200160405190810160405280929190818152602001828054610dc990614e84565b8015610e165780601f10610deb57610100808354040283529160200191610e16565b820191906000526020600020905b815481529060010190602001808311610df957829003601f168201915b50505050508152602001600282015481526020016003820160009054906101000a900460ff166002811115610e4e57610e4d614899565b5b6002811115610e6057610e5f614899565b5b81526020016003820160019054906101000a900460ff161515151581525050905080608001518015610ea357508380519060200120816000015180519060200120145b8015610eb25750828160400151145b91505092915050565b60066020528160005260406000208181548110610ed757600080fd5b9060005260206000209060040201600091509150508060000160009054906101000a900460ff1690806001018054610f0e90614e84565b80601f0160208091040260200160405190810160405280929190818152602001828054610f3a90614e84565b8015610f875780601f10610f5c57610100808354040283529160200191610f87565b820191906000526020600020905b815481529060010190602001808311610f6a57829003601f168201915b5050505050908060020154908060030160009054906101000a900460ff16908060030160019054906101000a900473ffffffffffffffffffffffffffffffffffffffff16905085565b60056020528160005260406000206020528060005260406000206000915091509054906101000a900460ff1681565b60028081111561101257611011614899565b5b600260003373ffffffffffffffffffffffffffffffffffffffff1673ffffffffffffffffffffffffffffffffffffffff16815260200190815260200160002060030160009054906101000a900460ff16600281111561107457611073614899565b5b146110b4576040517f08c379a00000000000000000000000000000000000000000000000000000000081526004016110ab9061505f565b60405180910390fd5b60048054905082106110fb576040517f08c379a00000000000000000000000000000000000000000000000000000000081526004016110f290614e35565b60405180910390fd5b6000600281111561110f5761110e614899565b5b600260008373ffffffffffffffffffffffffffffffffffffffff1673ffffffffffffffffffffffffffffffffffffffff16815260200190815260200160002060030160009054906101000a900460ff16600281111561117157611170614899565b5b146111b1576040517f08c379a00000000000000000000000000000000000000000000000000000000081526004016111a8906150cb565b60405180910390fd5b60016005600084815260200190815260200160002060008373ffffffffffffffffffffffffffffffffffffffff1673ffffffffffffffffffffffffffffffffffffffff16815260200190815260200160002060006101000a81548160ff0219169083151502179055505050565b600260003373ffffffffffffffffffffffffffffffffffffffff1673ffffffffffffffffffffffffffffffffffffffff16815260200190815260200160002060030160019054906101000a900460ff166112ad576040517f08c379a00000000000000000000000000000000000000000000000000000000081526004016112a490615137565b60405180910390fd5b6000600260003373ffffffffffffffffffffffffffffffffffffffff1673ffffffffffffffffffffffffffffffffffffffff168152602001908152602001600020905082816002015414611336576040517f08c379a000000000000000000000000000000000000000000000000000000000815260040161132d906151a3565b60405180910390fd5b8181600201819055503373ffffffffffffffffffffffffffffffffffffffff167fee52ac848d852cace0a3783312f1948e06da37de3b120183d8131ca8dd96726d60405160405180910390a2505050565b6003818154811061139757600080fd5b906000526020600020016000915054906101000a900473ffffffffffffffffffffffffffffffffffffffff1681565b600260003373ffffffffffffffffffffffffffffffffffffffff1673ffffffffffffffffffffffffffffffffffffffff16815260200190815260200160002060030160019054906101000a900460ff1615611456576040517f08c379a000000000000000000000000000000000000000000000000000000000815260040161144d9061520f565b60405180910390fd5b60028081111561146957611468614899565b5b81600281111561147c5761147b614899565b5b036114bc576040517f08c379a00000000000000000000000000000000000000000000000000000000081526004016114b39061527b565b60405180910390fd5b6008846040516114cc91906152d7565b908152602001604051809103902060009054906101000a900460ff1615611528576040517f08c379a000000000000000000000000000000000000000000000000000000000815260040161151f9061533a565b60405180910390fd5b6040518060a0016040528085815260200184815260200183815260200182600281111561155857611557614899565b5b815260200160011515815250600260003373ffffffffffffffffffffffffffffffffffffffff1673ffffffffffffffffffffffffffffffffffffffff16815260200190815260200160002060008201518160000190816115b89190615506565b5060208201518160010190816115ce9190615506565b506040820151816002015560608201518160030160006101000a81548160ff0219169083600281111561160457611603614899565b5b021790555060808201518160030160016101000a81548160ff0219169083151502179055509050506003339080600181540180825580915050600190039060005260206000200160009091909190916101000a81548173ffffffffffffffffffffffffffffffffffffffff021916908373ffffffffffffffffffffffffffffffffffffffff16021790555060016008856040516116a191906152d7565b908152602001604051809103902060006101000a81548160ff0219169083151502179055503373ffffffffffffffffffffffffffffffffffffffff167fc2e5d5da58bd71d1a2d14cdef02a4256d971b728088f8190d067ccfbae3bd73e858360405161170e9291906155d8565b60405180910390a250505050565b600060028111156117305761172f614899565b5b600260003373ffffffffffffffffffffffffffffffffffffffff1673ffffffffffffffffffffffffffffffffffffffff16815260200190815260200160002060030160009054906101000a900460ff16600281111561179257611791614899565b5b146117d2576040517f08c379a00000000000000000000000000000000000000000000000000000000081526004016117c990614f27565b60405180910390fd5b6117da613b38565b6004805490508410611821576040517f08c379a000000000000000000000000000000000000000000000000000000000815260040161181890614e35565b60405180910390fd5b6005600085815260200190815260200160002060003373ffffffffffffffffffffffffffffffffffffffff1673ffffffffffffffffffffffffffffffffffffffff16815260200190815260200160002060009054906101000a900460ff166118be576040517f08c379a00000000000000000000000000000000000000000000000000000000081526004016118b59061567a565b60405180910390fd5b60018360ff16101580156118d6575060058360ff1611155b611915576040517f08c379a000000000000000000000000000000000000000000000000000000000815260040161190c906156e6565b60405180910390fd5b60006040518060a001604052808560ff16815260200184815260200142815260200183151581526020018361194a573361194d565b60005b73ffffffffffffffffffffffffffffffffffffffff1681525090506006600086815260200190815260200160002081908060018154018082558091505060019003906000526020600020906004020160009091909190915060008201518160000160006101000a81548160ff021916908360ff16021790555060208201518160010190816119db9190615506565b506040820151816002015560608201518160030160006101000a81548160ff02191690831515021790555060808201518160030160016101000a81548173ffffffffffffffffffffffffffffffffffffffff021916908373ffffffffffffffffffffffffffffffffffffffff1602179055505050600760003373ffffffffffffffffffffffffffffffffffffffff1673ffffffffffffffffffffffffffffffffffffffff168152602001908152602001600020859080600181540180825580915050600190039060005260206000200160009091909190915055847fa9c81bb8e47a6d44db9cf5a51a1805f6496590f3180a77498f1c78bbf19ff3b63386604051611ae7929190615706565b60405180910390a250611af8613b87565b50505050565b60606004805490508210611b47576040517f08c379a0000000000000000000000000000000000000000000000000000000008152600401611b3e90614e35565b60405180910390fd5b6000805b600380549050811015611c1b5760056000858152602001908152602001600020600060038381548110611b8157611b80614fbe565b5b9060005260206000200160009054906101000a900473ffffffffffffffffffffffffffffffffffffffff1673ffffffffffffffffffffffffffffffffffffffff1673ffffffffffffffffffffffffffffffffffffffff16815260200190815260200160002060009054906101000a900460ff1615611c08578180611c0490614f76565b9250505b8080611c1390614f76565b915050611b4b565b5060008167ffffffffffffffff811115611c3857611c37614200565b5b604051908082528060200260200182016040528015611c665781602001602082028036833780820191505090505b5090506000805b600380549050811015611dc95760056000878152602001908152602001600020600060038381548110611ca357611ca2614fbe565b5b9060005260206000200160009054906101000a900473ffffffffffffffffffffffffffffffffffffffff1673ffffffffffffffffffffffffffffffffffffffff1673ffffffffffffffffffffffffffffffffffffffff16815260200190815260200160002060009054906101000a900460ff1615611db65760038181548110611d2f57611d2e614fbe565b5b9060005260206000200160009054906101000a900473ffffffffffffffffffffffffffffffffffffffff16838381518110611d6d57611d6c614fbe565b5b602002602001019073ffffffffffffffffffffffffffffffffffffffff16908173ffffffffffffffffffffffffffffffffffffffff16815250508180611db290614f76565b9250505b8080611dc190614f76565b915050611c6d565b50819350505050919050565b611ddd613b90565b611de76000613c0e565b565b606060006002811115611dff57611dfe614899565b5b600260003373ffffffffffffffffffffffffffffffffffffffff1673ffffffffffffffffffffffffffffffffffffffff16815260200190815260200160002060030160009054906101000a900460ff166002811115611e6157611e60614899565b5b14611ea1576040517f08c379a0000000000000000000000000000000000000000000000000000000008152600401611e98906150cb565b60405180910390fd5b6000600760003373ffffffffffffffffffffffffffffffffffffffff1673ffffffffffffffffffffffffffffffffffffffff168152602001908152602001600020805480602002602001604051908101604052809291908181526020018280548015611f2c57602002820191906000526020600020905b815481526020019060010190808311611f18575b505050505090506000805b825181101561211a576000838281518110611f5557611f54614fbe565b5b6020026020010151905060005b6006600083815260200190815260200160002080549050811015612105573373ffffffffffffffffffffffffffffffffffffffff16600660008481526020019081526020016000208281548110611fbc57611fbb614fbe565b5b906000526020600020906004020160030160019054906101000a900473ffffffffffffffffffffffffffffffffffffffff1673ffffffffffffffffffffffffffffffffffffffff1614806120de57506006600083815260200190815260200160002081815481106120305761202f614fbe565b5b906000526020600020906004020160030160009054906101000a900460ff1680156120dd5750600073ffffffffffffffffffffffffffffffffffffffff1660066000848152602001908152602001600020828154811061209357612092614fbe565b5b906000526020600020906004020160030160019054906101000a900473ffffffffffffffffffffffffffffffffffffffff1673ffffffffffffffffffffffffffffffffffffffff16145b5b156120f25783806120ee90614f76565b9450505b80806120fd90614f76565b915050611f62565b5050808061211290614f76565b915050611f37565b5060008167ffffffffffffffff81111561213757612136614200565b5b60405190808252806020026020018201604052801561217057816020015b61215d613d24565b8152602001906001900390816121555790505b5090506000805b84518110156124e057600085828151811061219557612194614fbe565b5b6020026020010151905060005b60066000838152602001908152602001600020805490508110156124cb573373ffffffffffffffffffffffffffffffffffffffff166006600084815260200190815260200160002082815481106121fc576121fb614fbe565b5b906000526020600020906004020160030160019054906101000a900473ffffffffffffffffffffffffffffffffffffffff1673ffffffffffffffffffffffffffffffffffffffff16148061231e57506006600083815260200190815260200160002081815481106122705761226f614fbe565b5b906000526020600020906004020160030160009054906101000a900460ff16801561231d5750600073ffffffffffffffffffffffffffffffffffffffff166006600084815260200190815260200160002082815481106122d3576122d2614fbe565b5b906000526020600020906004020160030160019054906101000a900473ffffffffffffffffffffffffffffffffffffffff1673ffffffffffffffffffffffffffffffffffffffff16145b5b156124b85760066000838152602001908152602001600020818154811061234857612347614fbe565b5b90600052602060002090600402016040518060a00160405290816000820160009054906101000a900460ff1660ff1660ff16815260200160018201805461238e90614e84565b80601f01602080910402602001604051908101604052809291908181526020018280546123ba90614e84565b80156124075780601f106123dc57610100808354040283529160200191612407565b820191906000526020600020905b8154815290600101906020018083116123ea57829003601f168201915b50505050508152602001600282015481526020016003820160009054906101000a900460ff161515151581526020016003820160019054906101000a900473ffffffffffffffffffffffffffffffffffffffff1673ffffffffffffffffffffffffffffffffffffffff1673ffffffffffffffffffffffffffffffffffffffff168152505085858151811061249e5761249d614fbe565b5b602002602001018190525083806124b490614f76565b9450505b80806124c390614f76565b9150506121a2565b505080806124d890614f76565b915050612177565b508194505050505090565b6007602052816000526040600020818154811061250757600080fd5b90600052602060002001600091509150505481565b60008060009054906101000a900473ffffffffffffffffffffffffffffffffffffffff16905090565b61254d613d6e565b600260003373ffffffffffffffffffffffffffffffffffffffff1673ffffffffffffffffffffffffffffffffffffffff16815260200190815260200160002060030160019054906101000a900460ff166125dc576040517f08c379a00000000000000000000000000000000000000000000000000000000081526004016125d390615137565b60405180910390fd5b600260003373ffffffffffffffffffffffffffffffffffffffff1673ffffffffffffffffffffffffffffffffffffffff1681526020019081526020016000206040518060a001604052908160008201805461263690614e84565b80601f016020809104026020016040519081016040528092919081815260200182805461266290614e84565b80156126af5780601f10612684576101008083540402835291602001916126af565b820191906000526020600020905b81548152906001019060200180831161269257829003601f168201915b505050505081526020016001820180546126c890614e84565b80601f01602080910402602001604051908101604052809291908181526020018280546126f490614e84565b80156127415780601f1061271657610100808354040283529160200191612741565b820191906000526020600020905b81548152906001019060200180831161272457829003601f168201915b50505050508152602001600282015481526020016003820160009054906101000a900460ff16600281111561277957612778614899565b5b600281111561278b5761278a614899565b5b81526020016003820160019054906101000a900460ff161515151581525050905090565b600481815481106127bf57600080fd5b90600052602060002090600302016000915090508060000154908060010180546127e890614e84565b80601f016020809104026020016040519081016040528092919081815260200182805461281490614e84565b80156128615780601f1061283657610100808354040283529160200191612861565b820191906000526020600020905b81548152906001019060200180831161284457829003601f168201915b5050505050908060020160009054906101000a900460ff16908060020160019054906101000a900473ffffffffffffffffffffffffffffffffffffffff16908060020160159054906101000a900460ff16905085565b6002808111156128ca576128c9614899565b5b600260003373ffffffffffffffffffffffffffffffffffffffff1673ffffffffffffffffffffffffffffffffffffffff16815260200190815260200160002060030160009054906101000a900460ff16600281111561292c5761292b614899565b5b1461296c576040517f08c379a00000000000000000000000000000000000000000000000000000000081526004016129639061505f565b60405180910390fd5b600073ffffffffffffffffffffffffffffffffffffffff168173ffffffffffffffffffffffffffffffffffffffff16036129db576040517f08c379a00000000000000000000000000000000000000000000000000000000081526004016129d29061577b565b60405180910390fd5b600160028111156129ef576129ee614899565b5b600260008373ffffffffffffffffffffffffffffffffffffffff1673ffffffffffffffffffffffffffffffffffffffff16815260200190815260200160002060030160009054906101000a900460ff166002811115612a5157612a50614899565b5b14612a91576040517f08c379a0000000000000000000000000000000000000000000000000000000008152600401612a88906157e7565b60405180910390fd5b6000600480549050905060046040518060a001604052808381526020018681526020018560ff1681526020018473ffffffffffffffffffffffffffffffffffffffff168152602001600115158152509080600181540180825580915050600190039060005260206000209060030201600090919091909150600082015181600001556020820151816001019081612b289190615506565b5060408201518160020160006101000a81548160ff021916908360ff16021790555060608201518160020160016101000a81548173ffffffffffffffffffffffffffffffffffffffff021916908373ffffffffffffffffffffffffffffffffffffffff16021790555060808201518160020160156101000a81548160ff0219169083151502179055505050807f643641c76a40022c4b01cf88a92e7ca45eadfbe987252a93d9ee71b286fd3a838584604051612be5929190615807565b60405180910390a250505050565b6002602052806000526040600020600091509050806000018054612c1690614e84565b80601f0160208091040260200160405190810160405280929190818152602001828054612c4290614e84565b8015612c8f5780601f10612c6457610100808354040283529160200191612c8f565b820191906000526020600020905b815481529060010190602001808311612c7257829003601f168201915b505050505090806001018054612ca490614e84565b80601f0160208091040260200160405190810160405280929190818152602001828054612cd090614e84565b8015612d1d5780601f10612cf257610100808354040283529160200191612d1d565b820191906000526020600020905b815481529060010190602001808311612d0057829003601f168201915b5050505050908060020154908060030160009054906101000a900460ff16908060030160019054906101000a900460ff16905085565b600260003373ffffffffffffffffffffffffffffffffffffffff1673ffffffffffffffffffffffffffffffffffffffff16815260200190815260200160002060030160019054906101000a900460ff16612de2576040517f08c379a0000000000000000000000000000000000000000000000000000000008152600401612dd990615137565b60405180910390fd5b6000600260003373ffffffffffffffffffffffffffffffffffffffff1673ffffffffffffffffffffffffffffffffffffffff168152602001908152602001600020905081816001019081612e369190615506565b503373ffffffffffffffffffffffffffffffffffffffff167f9ab5b01c08788936fb2b48da858665afe9fa06d32e17dc49e0510c24ba05c98383604051612e7d9190615837565b60405180910390a25050565b612e91613cda565b6004805490508210612ed8576040517f08c379a0000000000000000000000000000000000000000000000000000000008152600401612ecf90614e35565b60405180910390fd5b60048281548110612eec57612eeb614fbe565b5b90600052602060002090600302016040518060a001604052908160008201548152602001600182018054612f1f90614e84565b80601f0160208091040260200160405190810160405280929190818152602001828054612f4b90614e84565b8015612f985780601f10612f6d57610100808354040283529160200191612f98565b820191906000526020600020905b815481529060010190602001808311612f7b57829003601f168201915b505050505081526020016002820160009054906101000a900460ff1660ff1660ff1681526020016002820160019054906101000a900473ffffffffffffffffffffffffffffffffffffffff1673ffffffffffffffffffffffffffffffffffffffff1673ffffffffffffffffffffffffffffffffffffffff1681526020016002820160159054906101000a900460ff1615151515815250509050919050565b60606001600281111561304c5761304b614899565b5b600260003373ffffffffffffffffffffffffffffffffffffffff1673ffffffffffffffffffffffffffffffffffffffff16815260200190815260200160002060030160009054906101000a900460ff1660028111156130ae576130ad614899565b5b146130ee576040517f08c379a00000000000000000000000000000000000000000000000000000000081526004016130e5906158cb565b60405180910390fd5b6000805b600480549050811015613199573373ffffffffffffffffffffffffffffffffffffffff166004828154811061312a57613129614fbe565b5b906000526020600020906003020160020160019054906101000a900473ffffffffffffffffffffffffffffffffffffffff1673ffffffffffffffffffffffffffffffffffffffff160361318657818061318290614f76565b9250505b808061319190614f76565b9150506130f2565b5060008167ffffffffffffffff8111156131b6576131b5614200565b5b6040519080825280602002602001820160405280156131ef57816020015b6131dc613cda565b8152602001906001900390816131d45790505b5090506000805b600480549050811015613412573373ffffffffffffffffffffffffffffffffffffffff166004828154811061322e5761322d614fbe565b5b906000526020600020906003020160020160019054906101000a900473ffffffffffffffffffffffffffffffffffffffff1673ffffffffffffffffffffffffffffffffffffffff16036133ff576004818154811061328f5761328e614fbe565b5b90600052602060002090600302016040518060a0016040529081600082015481526020016001820180546132c290614e84565b80601f01602080910402602001604051908101604052809291908181526020018280546132ee90614e84565b801561333b5780601f106133105761010080835404028352916020019161333b565b820191906000526020600020905b81548152906001019060200180831161331e57829003601f168201915b505050505081526020016002820160009054906101000a900460ff1660ff1660ff1681526020016002820160019054906101000a900473ffffffffffffffffffffffffffffffffffffffff1673ffffffffffffffffffffffffffffffffffffffff1673ffffffffffffffffffffffffffffffffffffffff1681526020016002820160159054906101000a900460ff1615151515815250508383815181106133e5576133e4614fbe565b5b602002602001018190525081806133fb90614f76565b9250505b808061340a90614f76565b9150506131f6565b5081935050505090565b6008818051602081018201805184825260208301602085012081835280955050505050506000915054906101000a900460ff1681565b60028081111561346557613464614899565b5b600260003373ffffffffffffffffffffffffffffffffffffffff1673ffffffffffffffffffffffffffffffffffffffff16815260200190815260200160002060030160009054906101000a900460ff1660028111156134c7576134c6614899565b5b14613507576040517f08c379a00000000000000000000000000000000000000000000000000000000081526004016134fe9061505f565b60405180910390fd5b600480549050841061354e576040517f08c379a000000000000000000000000000000000000000000000000000000000815260040161354590614e35565b60405180910390fd5b600073ffffffffffffffffffffffffffffffffffffffff168173ffffffffffffffffffffffffffffffffffffffff16036135bd576040517f08c379a00000000000000000000000000000000000000000000000000000000081526004016135b49061577b565b60405180910390fd5b600160028111156135d1576135d0614899565b5b600260008373ffffffffffffffffffffffffffffffffffffffff1673ffffffffffffffffffffffffffffffffffffffff16815260200190815260200160002060030160009054906101000a900460ff16600281111561363357613632614899565b5b14613673576040517f08c379a000000000000000000000000000000000000000000000000000000000815260040161366a906157e7565b60405180910390fd5b60006004858154811061368957613688614fbe565b5b90600052602060002090600302019050838160010190816136aa9190615506565b50828160020160006101000a81548160ff021916908360ff160217905550818160020160016101000a81548173ffffffffffffffffffffffffffffffffffffffff021916908373ffffffffffffffffffffffffffffffffffffffff160217905550847f1a4e3a1bc57bb7b519fd2e5f7ee36d9dd8b5b0bb666a5e20cb88e22bf5798fe5858460405161373d929190615807565b60405180910390a25050505050565b606060028081111561376157613760614899565b5b600260003373ffffffffffffffffffffffffffffffffffffffff1673ffffffffffffffffffffffffffffffffffffffff16815260200190815260200160002060030160009054906101000a900460ff1660028111156137c3576137c2614899565b5b14613803576040517f08c379a00000000000000000000000000000000000000000000000000000000081526004016137fa9061505f565b60405180910390fd5b600060038054905067ffffffffffffffff81111561382457613823614200565b5b60405190808252806020026020018201604052801561385d57816020015b61384a613d6e565b8152602001906001900390816138425790505b50905060005b600380549050811015613aad57600260006003838154811061388857613887614fbe565b5b9060005260206000200160009054906101000a900473ffffffffffffffffffffffffffffffffffffffff1673ffffffffffffffffffffffffffffffffffffffff1673ffffffffffffffffffffffffffffffffffffffff1681526020019081526020016000206040518060a001604052908160008201805461390890614e84565b80601f016020809104026020016040519081016040528092919081815260200182805461393490614e84565b80156139815780601f1061395657610100808354040283529160200191613981565b820191906000526020600020905b81548152906001019060200180831161396457829003601f168201915b5050505050815260200160018201805461399a90614e84565b80601f01602080910402602001604051908101604052809291908181526020018280546139c690614e84565b8015613a135780601f106139e857610100808354040283529160200191613a13565b820191906000526020600020905b8154815290600101906020018083116139f657829003601f168201915b50505050508152602001600282015481526020016003820160009054906101000a900460ff166002811115613a4b57613a4a614899565b5b6002811115613a5d57613a5c614899565b5b81526020016003820160019054906101000a900460ff161515151581525050828281518110613a8f57613a8e614fbe565b5b60200260200101819052508080613aa590614f76565b915050613863565b508091505090565b613abd613b90565b600073ffffffffffffffffffffffffffffffffffffffff168173ffffffffffffffffffffffffffffffffffffffff1603613b2c576040517f08c379a0000000000000000000000000000000000000000000000000000000008152600401613b239061595d565b60405180910390fd5b613b3581613c0e565b50565b600260015403613b7d576040517f08c379a0000000000000000000000000000000000000000000000000000000008152600401613b74906159c9565b60405180910390fd5b6002600181905550565b60018081905550565b613b98613cd2565b73ffffffffffffffffffffffffffffffffffffffff16613bb661251c565b73ffffffffffffffffffffffffffffffffffffffff1614613c0c576040517f08c379a0000000000000000000000000000000000000000000000000000000008152600401613c0390615a35565b60405180910390fd5b565b60008060009054906101000a900473ffffffffffffffffffffffffffffffffffffffff169050816000806101000a81548173ffffffffffffffffffffffffffffffffffffffff021916908373ffffffffffffffffffffffffffffffffffffffff1602179055508173ffffffffffffffffffffffffffffffffffffffff168173ffffffffffffffffffffffffffffffffffffffff167f8be0079c531659141344cd1fd0a4f28419497f9722a3daafe3b4186f6b6457e060405160405180910390a35050565b600033905090565b6040518060a001604052806000815260200160608152602001600060ff168152602001600073ffffffffffffffffffffffffffffffffffffffff1681526020016000151581525090565b6040518060a00160405280600060ff1681526020016060815260200160008152602001600015158152602001600073ffffffffffffffffffffffffffffffffffffffff1681525090565b6040518060a0016040528060608152602001606081526020016000801916815260200160006002811115613da557613da4614899565b5b81526020016000151581525090565b6000604051905090565b600080fd5b600080fd5b6000819050919050565b613ddb81613dc8565b8114613de657600080fd5b50565b600081359050613df881613dd2565b92915050565b600060208284031215613e1457613e13613dbe565b5b6000613e2284828501613de9565b91505092915050565b600081519050919050565b600082825260208201905092915050565b6000819050602082019050919050565b600060ff82169050919050565b613e6d81613e57565b82525050565b600081519050919050565b600082825260208201905092915050565b60005b83811015613ead578082015181840152602081019050613e92565b60008484015250505050565b6000601f19601f8301169050919050565b6000613ed582613e73565b613edf8185613e7e565b9350613eef818560208601613e8f565b613ef881613eb9565b840191505092915050565b613f0c81613dc8565b82525050565b60008115159050919050565b613f2781613f12565b82525050565b600073ffffffffffffffffffffffffffffffffffffffff82169050919050565b6000613f5882613f2d565b9050919050565b613f6881613f4d565b82525050565b600060a083016000830151613f866000860182613e64565b5060208301518482036020860152613f9e8282613eca565b9150506040830151613fb36040860182613f03565b506060830151613fc66060860182613f1e565b506080830151613fd96080860182613f5f565b508091505092915050565b6000613ff08383613f6e565b905092915050565b6000602082019050919050565b600061401082613e2b565b61401a8185613e36565b93508360208202850161402c85613e47565b8060005b8581101561406857848403895281516140498582613fe4565b945061405483613ff8565b925060208a01995050600181019050614030565b50829750879550505050505092915050565b600060208201905081810360008301526140948184614005565b905092915050565b600081519050919050565b600082825260208201905092915050565b6000819050602082019050919050565b600060a0830160008301516140e06000860182613f03565b50602083015184820360208601526140f88282613eca565b915050604083015161410d6040860182613e64565b5060608301516141206060860182613f5f565b5060808301516141336080860182613f1e565b508091505092915050565b600061414a83836140c8565b905092915050565b6000602082019050919050565b600061416a8261409c565b61417481856140a7565b935083602082028501614186856140b8565b8060005b858110156141c257848403895281516141a3858261413e565b94506141ae83614152565b925060208a0199505060018101905061418a565b50829750879550505050505092915050565b600060208201905081810360008301526141ee818461415f565b905092915050565b600080fd5b600080fd5b7f4e487b7100000000000000000000000000000000000000000000000000000000600052604160045260246000fd5b61423882613eb9565b810181811067ffffffffffffffff8211171561425757614256614200565b5b80604052505050565b600061426a613db4565b9050614276828261422f565b919050565b600067ffffffffffffffff82111561429657614295614200565b5b61429f82613eb9565b9050602081019050919050565b82818337600083830152505050565b60006142ce6142c98461427b565b614260565b9050828152602081018484840111156142ea576142e96141fb565b5b6142f58482856142ac565b509392505050565b600082601f830112614312576143116141f6565b5b81356143228482602086016142bb565b91505092915050565b6000819050919050565b61433e8161432b565b811461434957600080fd5b50565b60008135905061435b81614335565b92915050565b6000806040838503121561437857614377613dbe565b5b600083013567ffffffffffffffff81111561439657614395613dc3565b5b6143a2858286016142fd565b92505060206143b38582860161434c565b9150509250929050565b6143c681613f12565b82525050565b60006020820190506143e160008301846143bd565b92915050565b600080604083850312156143fe576143fd613dbe565b5b600061440c85828601613de9565b925050602061441d85828601613de9565b9150509250929050565b61443081613e57565b82525050565b600082825260208201905092915050565b600061445282613e73565b61445c8185614436565b935061446c818560208601613e8f565b61447581613eb9565b840191505092915050565b61448981613dc8565b82525050565b61449881613f4d565b82525050565b600060a0820190506144b36000830188614427565b81810360208301526144c58187614447565b90506144d46040830186614480565b6144e160608301856143bd565b6144ee608083018461448f565b9695505050505050565b61450181613f4d565b811461450c57600080fd5b50565b60008135905061451e816144f8565b92915050565b6000806040838503121561453b5761453a613dbe565b5b600061454985828601613de9565b925050602061455a8582860161450f565b9150509250929050565b6000806040838503121561457b5761457a613dbe565b5b60006145898582860161434c565b925050602061459a8582860161434c565b9150509250929050565b60006020820190506145b9600083018461448f565b92915050565b600381106145cc57600080fd5b50565b6000813590506145de816145bf565b92915050565b600080600080608085870312156145fe576145fd613dbe565b5b600085013567ffffffffffffffff81111561461c5761461b613dc3565b5b614628878288016142fd565b945050602085013567ffffffffffffffff81111561464957614648613dc3565b5b614655878288016142fd565b93505060406146668782880161434c565b9250506060614677878288016145cf565b91505092959194509250565b61468c81613e57565b811461469757600080fd5b50565b6000813590506146a981614683565b92915050565b6146b881613f12565b81146146c357600080fd5b50565b6000813590506146d5816146af565b92915050565b600080600080608085870312156146f5576146f4613dbe565b5b600061470387828801613de9565b94505060206147148782880161469a565b935050604085013567ffffffffffffffff81111561473557614734613dc3565b5b614741878288016142fd565b9250506060614752878288016146c6565b91505092959194509250565b600081519050919050565b600082825260208201905092915050565b6000819050602082019050919050565b60006147968383613f5f565b60208301905092915050565b6000602082019050919050565b60006147ba8261475e565b6147c48185614769565b93506147cf8361477a565b8060005b838110156148005781516147e7888261478a565b97506147f2836147a2565b9250506001810190506147d3565b5085935050505092915050565b6000602082019050818103600083015261482781846147af565b905092915050565b6000806040838503121561484657614845613dbe565b5b60006148548582860161450f565b925050602061486585828601613de9565b9150509250929050565b60006020820190506148846000830184614480565b92915050565b6148938161432b565b82525050565b7f4e487b7100000000000000000000000000000000000000000000000000000000600052602160045260246000fd5b600381106148d9576148d8614899565b5b50565b60008190506148ea826148c8565b919050565b60006148fa826148dc565b9050919050565b61490a816148ef565b82525050565b600060a083016000830151848203600086015261492d8282613eca565b915050602083015184820360208601526149478282613eca565b915050604083015161495c604086018261488a565b50606083015161496f6060860182614901565b5060808301516149826080860182613f1e565b508091505092915050565b600060208201905081810360008301526149a78184614910565b905092915050565b600060a0820190506149c46000830188614480565b81810360208301526149d68187614447565b90506149e56040830186614427565b6149f2606083018561448f565b6149ff60808301846143bd565b9695505050505050565b600080600060608486031215614a2257614a21613dbe565b5b600084013567ffffffffffffffff811115614a4057614a3f613dc3565b5b614a4c868287016142fd565b9350506020614a5d8682870161469a565b9250506040614a6e8682870161450f565b9150509250925092565b600060208284031215614a8e57614a8d613dbe565b5b6000614a9c8482850161450f565b91505092915050565b614aae8161432b565b82525050565b614abd816148ef565b82525050565b600060a0820190508181036000830152614add8188614447565b90508181036020830152614af18187614447565b9050614b006040830186614aa5565b614b0d6060830185614ab4565b614b1a60808301846143bd565b9695505050505050565b600060208284031215614b3a57614b39613dbe565b5b600082013567ffffffffffffffff811115614b5857614b57613dc3565b5b614b64848285016142fd565b91505092915050565b600060a083016000830151614b856000860182613f03565b5060208301518482036020860152614b9d8282613eca565b9150506040830151614bb26040860182613e64565b506060830151614bc56060860182613f5f565b506080830151614bd86080860182613f1e565b508091505092915050565b60006020820190508181036000830152614bfd8184614b6d565b905092915050565b60008060008060808587031215614c1f57614c1e613dbe565b5b6000614c2d87828801613de9565b945050602085013567ffffffffffffffff811115614c4e57614c4d613dc3565b5b614c5a878288016142fd565b9350506040614c6b8782880161469a565b9250506060614c7c8782880161450f565b91505092959194509250565b600081519050919050565b600082825260208201905092915050565b6000819050602082019050919050565b600060a0830160008301518482036000860152614cd18282613eca565b91505060208301518482036020860152614ceb8282613eca565b9150506040830151614d00604086018261488a565b506060830151614d136060860182614901565b506080830151614d266080860182613f1e565b508091505092915050565b6000614d3d8383614cb4565b905092915050565b6000602082019050919050565b6000614d5d82614c88565b614d678185614c93565b935083602082028501614d7985614ca4565b8060005b85811015614db55784840389528151614d968582614d31565b9450614da183614d45565b925060208a01995050600181019050614d7d565b50829750879550505050505092915050565b60006020820190508181036000830152614de18184614d52565b905092915050565b7f436f7572736520646f6573206e6f742065786973740000000000000000000000600082015250565b6000614e1f601583614436565b9150614e2a82614de9565b602082019050919050565b60006020820190508181036000830152614e4e81614e12565b9050919050565b7f4e487b7100000000000000000000000000000000000000000000000000000000600052602260045260246000fd5b60006002820490506001821680614e9c57607f821691505b602082108103614eaf57614eae614e55565b5b50919050565b7f4f6e6c792073747564656e742063616e20706572666f726d207468697320616360008201527f74696f6e00000000000000000000000000000000000000000000000000000000602082015250565b6000614f11602483614436565b9150614f1c82614eb5565b604082019050919050565b60006020820190508181036000830152614f4081614f04565b9050919050565b7f4e487b7100000000000000000000000000000000000000000000000000000000600052601160045260246000fd5b6000614f8182613dc8565b91507fffffffffffffffffffffffffffffffffffffffffffffffffffffffffffffffff8203614fb357614fb2614f47565b5b600182019050919050565b7f4e487b7100000000000000000000000000000000000000000000000000000000600052603260045260246000fd5b7f4f6e6c792061646d696e2063616e20706572666f726d2074686973206163746960008201527f6f6e000000000000000000000000000000000000000000000000000000000000602082015250565b6000615049602283614436565b915061505482614fed565b604082019050919050565b600060208201905081810360008301526150788161503c565b9050919050565b7f4e6f7420612073747564656e7400000000000000000000000000000000000000600082015250565b60006150b5600d83614436565b91506150c08261507f565b602082019050919050565b600060208201905081810360008301526150e4816150a8565b9050919050565b7f55736572206e6f74207265676973746572656400000000000000000000000000600082015250565b6000615121601383614436565b915061512c826150eb565b602082019050919050565b6000602082019050818103600083015261515081615114565b9050919050565b7f496e636f7272656374206f6c642070617373776f726400000000000000000000600082015250565b600061518d601683614436565b915061519882615157565b602082019050919050565b600060208201905081810360008301526151bc81615180565b9050919050565b7f5573657220616c72656164792072656769737465726564000000000000000000600082015250565b60006151f9601783614436565b9150615204826151c3565b602082019050919050565b60006020820190508181036000830152615228816151ec565b9050919050565b7f43616e6e6f742072656769737465722061732061646d696e0000000000000000600082015250565b6000615265601883614436565b91506152708261522f565b602082019050919050565b6000602082019050818103600083015261529481615258565b9050919050565b600081905092915050565b60006152b182613e73565b6152bb818561529b565b93506152cb818560208601613e8f565b80840191505092915050565b60006152e382846152a6565b915081905092915050565b7f5573657220494420616c72656164792065786973747300000000000000000000600082015250565b6000615324601683614436565b915061532f826152ee565b602082019050919050565b6000602082019050818103600083015261535381615317565b9050919050565b60008190508160005260206000209050919050565b60006020601f8301049050919050565b600082821b905092915050565b6000600883026153bc7fffffffffffffffffffffffffffffffffffffffffffffffffffffffffffffffff8261537f565b6153c6868361537f565b95508019841693508086168417925050509392505050565b6000819050919050565b60006154036153fe6153f984613dc8565b6153de565b613dc8565b9050919050565b6000819050919050565b61541d836153e8565b6154316154298261540a565b84845461538c565b825550505050565b600090565b615446615439565b615451818484615414565b505050565b5b818110156154755761546a60008261543e565b600181019050615457565b5050565b601f8211156154ba5761548b8161535a565b6154948461536f565b810160208510156154a3578190505b6154b76154af8561536f565b830182615456565b50505b505050565b600082821c905092915050565b60006154dd600019846008026154bf565b1980831691505092915050565b60006154f683836154cc565b9150826002028217905092915050565b61550f82613e73565b67ffffffffffffffff81111561552857615527614200565b5b6155328254614e84565b61553d828285615479565b600060209050601f831160018114615570576000841561555e578287015190505b61556885826154ea565b8655506155d0565b601f19841661557e8661535a565b60005b828110156155a657848901518255600182019150602085019450602081019050615581565b868310156155c357848901516155bf601f8916826154cc565b8355505b6001600288020188555050505b505050505050565b600060408201905081810360008301526155f28185614447565b90506156016020830184614ab4565b9392505050565b7f53747564656e7420686173206e6f742074616b656e207468697320636f75727360008201527f6500000000000000000000000000000000000000000000000000000000000000602082015250565b6000615664602183614436565b915061566f82615608565b604082019050919050565b6000602082019050818103600083015261569381615657565b9050919050565b7f53636f7265206d757374206265206265747765656e203120616e642035000000600082015250565b60006156d0601d83614436565b91506156db8261569a565b602082019050919050565b600060208201905081810360008301526156ff816156c3565b9050919050565b600060408201905061571b600083018561448f565b6157286020830184614427565b9392505050565b7f496e76616c696420746561636865722061646472657373000000000000000000600082015250565b6000615765601783614436565b91506157708261572f565b602082019050919050565b6000602082019050818103600083015261579481615758565b9050919050565b7f54656163686572206e6f74207265676973746572656400000000000000000000600082015250565b60006157d1601683614436565b91506157dc8261579b565b602082019050919050565b60006020820190508181036000830152615800816157c4565b9050919050565b600060408201905081810360008301526158218185614447565b9050615830602083018461448f565b9392505050565b600060208201905081810360008301526158518184614447565b905092915050565b7f4f6e6c7920746561636865722063616e20706572666f726d207468697320616360008201527f74696f6e00000000000000000000000000000000000000000000000000000000602082015250565b60006158b5602483614436565b91506158c082615859565b604082019050919050565b600060208201905081810360008301526158e4816158a8565b9050919050565b7f4f776e61626c653a206e6577206f776e657220697320746865207a65726f206160008201527f6464726573730000000000000000000000000000000000000000000000000000602082015250565b6000615947602683614436565b9150615952826158eb565b604082019050919050565b600060208201905081810360008301526159768161593a565b9050919050565b7f5265656e7472616e637947756172643a207265656e7472616e742063616c6c00600082015250565b60006159b3601f83614436565b91506159be8261597d565b602082019050919050565b600060208201905081810360008301526159e2816159a6565b9050919050565b7f4f776e61626c653a2063616c6c6572206973206e6f7420746865206f776e6572600082015250565b6000615a1f602083614436565b9150615a2a826159e9565b602082019050919050565b60006020820190508181036000830152615a4e81615a12565b905091905056fea26469706673582212209f0df6f8de3e7ec5352ffae6300b652849d619aec5a816ac7a544f2e2bf6626b64736f6c63430008130033",
  "linkReferences": {},
  "deployedLinkReferences": {}
}